{
  "_format": "hh-sol-artifact-1",
  "contractName": "BarrenWuffet",
  "sourceName": "contracts/funds/BarrenWuffet.sol",
  "abi": [
    {
      "inputs": [
        {
          "components": [
            {
              "internalType": "address",
              "name": "platformFeeWallet",
              "type": "address"
            },
            {
              "internalType": "uint256",
              "name": "subscriberToPlatformFeePercentage",
              "type": "uint256"
            },
            {
              "internalType": "uint256",
              "name": "managerToPlatformFeePercentage",
              "type": "uint256"
            },
            {
              "internalType": "uint256",
              "name": "subscriberToManagerFeePercentage",
              "type": "uint256"
            }
          ],
          "internalType": "struct FeeParams",
          "name": "_feeParams",
          "type": "tuple"
        },
        {
          "internalType": "bytes32",
          "name": "_triggerWhitelistHash",
          "type": "bytes32"
        },
        {
          "internalType": "bytes32",
          "name": "_actionWhitelistHash",
          "type": "bytes32"
        },
        {
          "internalType": "address",
          "name": "_wlServiceAddr",
          "type": "address"
        },
        {
          "internalType": "address",
          "name": "_roboCopBeaconAddr",
          "type": "address"
        },
        {
          "internalType": "address",
          "name": "_fundBeaconAddr",
          "type": "address"
        }
      ],
      "stateMutability": "nonpayable",
      "type": "constructor"
    },
    {
      "anonymous": false,
      "inputs": [
        {
          "indexed": true,
          "internalType": "address",
          "name": "manager",
          "type": "address"
        },
        {
          "indexed": false,
          "internalType": "address",
          "name": "fundAddr",
          "type": "address"
        }
      ],
      "name": "Created",
      "type": "event"
    },
    {
      "anonymous": false,
      "inputs": [
        {
          "indexed": true,
          "internalType": "address",
          "name": "previousOwner",
          "type": "address"
        },
        {
          "indexed": true,
          "internalType": "address",
          "name": "newOwner",
          "type": "address"
        }
      ],
      "name": "OwnershipTransferred",
      "type": "event"
    },
    {
      "anonymous": false,
      "inputs": [
        {
          "indexed": false,
          "internalType": "address",
          "name": "account",
          "type": "address"
        }
      ],
      "name": "Paused",
      "type": "event"
    },
    {
      "anonymous": false,
      "inputs": [
        {
          "indexed": false,
          "internalType": "address",
          "name": "account",
          "type": "address"
        }
      ],
      "name": "Unpaused",
      "type": "event"
    },
    {
      "inputs": [],
      "name": "actionWhitelistHash",
      "outputs": [
        {
          "internalType": "bytes32",
          "name": "",
          "type": "bytes32"
        }
      ],
      "stateMutability": "view",
      "type": "function"
    },
    {
      "inputs": [
        {
          "internalType": "string",
          "name": "name",
          "type": "string"
        },
        {
          "components": [
            {
              "internalType": "uint256",
              "name": "minCollateralPerSub",
              "type": "uint256"
            },
            {
              "internalType": "uint256",
              "name": "maxCollateralPerSub",
              "type": "uint256"
            },
            {
              "internalType": "uint256",
              "name": "minCollateralTotal",
              "type": "uint256"
            },
            {
              "internalType": "uint256",
              "name": "maxCollateralTotal",
              "type": "uint256"
            },
            {
              "internalType": "uint256",
              "name": "deadline",
              "type": "uint256"
            },
            {
              "internalType": "uint256",
              "name": "lockin",
              "type": "uint256"
            },
            {
              "components": [
                {
                  "internalType": "enum TokenType",
                  "name": "t",
                  "type": "uint8"
                },
                {
                  "internalType": "address",
                  "name": "addr",
                  "type": "address"
                },
                {
                  "internalType": "uint256",
                  "name": "id",
                  "type": "uint256"
                }
              ],
              "internalType": "struct Token",
              "name": "allowedDepositToken",
              "type": "tuple"
            }
          ],
          "internalType": "struct Subscriptions.Constraints",
          "name": "constraints",
          "type": "tuple"
        },
        {
          "internalType": "uint256",
          "name": "subscriberToManagerFeePercentage",
          "type": "uint256"
        },
        {
          "internalType": "address[]",
          "name": "declaredTokens",
          "type": "address[]"
        }
      ],
      "name": "createFund",
      "outputs": [
        {
          "internalType": "address",
          "name": "",
          "type": "address"
        }
      ],
      "stateMutability": "nonpayable",
      "type": "function"
    },
    {
      "inputs": [],
      "name": "feeParams",
      "outputs": [
        {
          "internalType": "address",
          "name": "platformFeeWallet",
          "type": "address"
        },
        {
          "internalType": "uint256",
          "name": "subscriberToPlatformFeePercentage",
          "type": "uint256"
        },
        {
          "internalType": "uint256",
          "name": "managerToPlatformFeePercentage",
          "type": "uint256"
        },
        {
          "internalType": "uint256",
          "name": "subscriberToManagerFeePercentage",
          "type": "uint256"
        }
      ],
      "stateMutability": "view",
      "type": "function"
    },
    {
      "inputs": [],
      "name": "fundBeaconAddr",
      "outputs": [
        {
          "internalType": "address",
          "name": "",
          "type": "address"
        }
      ],
      "stateMutability": "view",
      "type": "function"
    },
    {
      "inputs": [],
      "name": "owner",
      "outputs": [
        {
          "internalType": "address",
          "name": "",
          "type": "address"
        }
      ],
      "stateMutability": "view",
      "type": "function"
    },
    {
      "inputs": [],
      "name": "pause",
      "outputs": [],
      "stateMutability": "nonpayable",
      "type": "function"
    },
    {
      "inputs": [],
      "name": "paused",
      "outputs": [
        {
          "internalType": "bool",
          "name": "",
          "type": "bool"
        }
      ],
      "stateMutability": "view",
      "type": "function"
    },
    {
      "inputs": [],
      "name": "renounceOwnership",
      "outputs": [],
      "stateMutability": "nonpayable",
      "type": "function"
    },
    {
      "inputs": [],
      "name": "roboCopBeaconAddr",
      "outputs": [
        {
          "internalType": "address",
          "name": "",
          "type": "address"
        }
      ],
      "stateMutability": "view",
      "type": "function"
    },
    {
      "inputs": [
        {
          "internalType": "bytes32",
          "name": "_actionWhitelistHash",
          "type": "bytes32"
        }
      ],
      "name": "setActionWhitelistHash",
      "outputs": [],
      "stateMutability": "nonpayable",
      "type": "function"
    },
    {
      "inputs": [
        {
          "components": [
            {
              "internalType": "address",
              "name": "platformFeeWallet",
              "type": "address"
            },
            {
              "internalType": "uint256",
              "name": "subscriberToPlatformFeePercentage",
              "type": "uint256"
            },
            {
              "internalType": "uint256",
              "name": "managerToPlatformFeePercentage",
              "type": "uint256"
            },
            {
              "internalType": "uint256",
              "name": "subscriberToManagerFeePercentage",
              "type": "uint256"
            }
          ],
          "internalType": "struct FeeParams",
          "name": "_feeParams",
          "type": "tuple"
        }
      ],
      "name": "setSubscriptionFeeParams",
      "outputs": [],
      "stateMutability": "nonpayable",
      "type": "function"
    },
    {
      "inputs": [
        {
          "internalType": "bytes32",
          "name": "_triggerWhitelistHash",
          "type": "bytes32"
        }
      ],
      "name": "setTriggerWhitelistHash",
      "outputs": [],
      "stateMutability": "nonpayable",
      "type": "function"
    },
    {
      "inputs": [
        {
          "internalType": "address",
          "name": "_wlServiceAddr",
          "type": "address"
        }
      ],
      "name": "setWhitelistServiceAddress",
      "outputs": [],
      "stateMutability": "nonpayable",
      "type": "function"
    },
    {
      "inputs": [
        {
          "internalType": "address",
          "name": "newOwner",
          "type": "address"
        }
      ],
      "name": "transferOwnership",
      "outputs": [],
      "stateMutability": "nonpayable",
      "type": "function"
    },
    {
      "inputs": [],
      "name": "triggerWhitelistHash",
      "outputs": [
        {
          "internalType": "bytes32",
          "name": "",
          "type": "bytes32"
        }
      ],
      "stateMutability": "view",
      "type": "function"
    },
    {
      "inputs": [],
      "name": "unpause",
      "outputs": [],
      "stateMutability": "nonpayable",
      "type": "function"
    },
    {
      "inputs": [],
      "name": "wlServiceAddr",
      "outputs": [
        {
          "internalType": "address",
          "name": "",
          "type": "address"
        }
      ],
      "stateMutability": "view",
      "type": "function"
    }
  ],
  "bytecode": "0x60806040523480156200001157600080fd5b50604051620017bc380380620017bc8339810160408190526200003491620001e1565b6200003f33620000a7565b6000805460ff60a01b191690556200005786620000f7565b600594909455600692909255600780546001600160a01b039283166001600160a01b03199182161790915560088054938316938216939093179092556009805491909316911617905550620002b9565b600080546001600160a01b038381166001600160a01b0319831681178455604051919092169283917f8be0079c531659141344cd1fd0a4f28419497f9722a3daafe3b4186f6b6457e09190a35050565b6200010162000163565b612710816020015111156200011557600080fd5b612710816040015111156200012957600080fd5b8051600180546001600160a01b0319166001600160a01b039092169190911790556020810151600255604081015160035560600151600455565b6000546001600160a01b03163314620001c25760405162461bcd60e51b815260206004820181905260248201527f4f776e61626c653a2063616c6c6572206973206e6f7420746865206f776e6572604482015260640160405180910390fd5b565b80516001600160a01b0381168114620001dc57600080fd5b919050565b600080600080600080868803610120811215620001fd57600080fd5b60808112156200020c57600080fd5b50604051608081016001600160401b03811182821017156200023e57634e487b7160e01b600052604160045260246000fd5b6040526200024c88620001c4565b8152602088015160208201526040880151604082015260608801516060820152809650506080870151945060a087015193506200028c60c08801620001c4565b92506200029c60e08801620001c4565b9150620002ad6101008801620001c4565b90509295509295509295565b6114f380620002c96000396000f3fe60806040523480156200001157600080fd5b5060043610620001215760003560e01c80638456cb5911620000af578063a7460ed1116200007a578063a7460ed11462000255578063dbb9aefa146200026c578063dfae78561462000280578063eedb2c041462000294578063f2fde38b14620002ab57600080fd5b80638456cb5914620001c65780638da5cb5b14620001d05780639242164f14620001f6578063a503c155146200024157600080fd5b80635c975abb11620000f05780635c975abb146200017d5780637054eef1146200019b578063715018a614620001a5578063760f85b114620001af57600080fd5b80631ad106c814620001265780633f4ba83a146200013f57806340868a2014620001495780634e4dc66e1462000160575b600080fd5b6200013d62000137366004620007b7565b620002c2565b005b6200013d6200032e565b6200013d6200015a36600462000834565b62000344565b6200016a60055481565b6040519081526020015b60405180910390f35b600054600160a01b900460ff16604051901515815260200162000174565b6200016a60065481565b6200013d62000353565b6200013d620001c036600462000834565b62000369565b6200013d62000378565b6000546001600160a01b03165b6040516001600160a01b03909116815260200162000174565b60015460025460035460045462000216936001600160a01b031692919084565b604080516001600160a01b039095168552602085019390935291830152606082015260800162000174565b600954620001dd906001600160a01b031681565b620001dd62000266366004620008b7565b6200038c565b600754620001dd906001600160a01b031681565b600854620001dd906001600160a01b031681565b6200013d620002a53660046200097d565b620004f3565b6200013d620002bc3660046200097d565b6200051f565b620002cc620005a2565b61271081602001511115620002e057600080fd5b61271081604001511115620002f457600080fd5b8051600180546001600160a01b0319166001600160a01b039092169190911790556020810151600255604081015160035560600151600455565b62000338620005a2565b62000342620005fe565b565b6200034e620005a2565b600655565b6200035d620005a2565b62000342600062000655565b62000373620005a2565b600555565b62000382620005a2565b62000342620006a5565b600062000398620006eb565b6009546040516060916000916001600160a01b03909116908390620003bd906200078c565b620003ca929190620009a2565b604051809103906000f080158015620003e7573d6000803e3d6000fd5b509050612710861115620003fa57600080fd5b85600160030181905550806001600160a01b0316637303ee228a8a338b6001600760009054906101000a90046001600160a01b0316600554600654600860009054906101000a90046001600160a01b03168f8f6040518c63ffffffff1660e01b8152600401620004759b9a9998979695949392919062000a55565b600060405180830381600087803b1580156200049057600080fd5b505af1158015620004a5573d6000803e3d6000fd5b50506040516001600160a01b03841681523392507f587ece4cd19692c5be1a4184503d607d45542d2aca0698c0068f52e09ccb541c915060200160405180910390a298975050505050505050565b620004fd620005a2565b600780546001600160a01b0319166001600160a01b0392909216919091179055565b62000529620005a2565b6001600160a01b038116620005945760405162461bcd60e51b815260206004820152602660248201527f4f776e61626c653a206e6577206f776e657220697320746865207a65726f206160448201526564647265737360d01b60648201526084015b60405180910390fd5b6200059f8162000655565b50565b6000546001600160a01b03163314620003425760405162461bcd60e51b815260206004820181905260248201527f4f776e61626c653a2063616c6c6572206973206e6f7420746865206f776e657260448201526064016200058b565b620006086200073a565b6000805460ff60a01b191690557f5db9ee0a495bf2e6ff9c91a7834c1ba4fdd244a5e8aa4e537bd38aeae4b073aa335b6040516001600160a01b03909116815260200160405180910390a1565b600080546001600160a01b038381166001600160a01b0319831681178455604051919092169283917f8be0079c531659141344cd1fd0a4f28419497f9722a3daafe3b4186f6b6457e09190a35050565b620006af620006eb565b6000805460ff60a01b1916600160a01b1790557f62e78cea01bee320cd4e420270b5ea74000d11b0c9f74754ebdbfc544b05a258620006383390565b600054600160a01b900460ff1615620003425760405162461bcd60e51b815260206004820152601060248201526f14185d5cd8589b194e881c185d5cd95960821b60448201526064016200058b565b600054600160a01b900460ff16620003425760405162461bcd60e51b815260206004820152601460248201527314185d5cd8589b194e881b9bdd081c185d5cd95960621b60448201526064016200058b565b6109278062000b9783390190565b80356001600160a01b0381168114620007b257600080fd5b919050565b600060808284031215620007ca57600080fd5b6040516080810181811067ffffffffffffffff82111715620007fc57634e487b7160e01b600052604160045260246000fd5b6040526200080a836200079a565b81526020830135602082015260408301356040820152606083013560608201528091505092915050565b6000602082840312156200084757600080fd5b5035919050565b600061012082840312156200086257600080fd5b50919050565b60008083601f8401126200087b57600080fd5b50813567ffffffffffffffff8111156200089457600080fd5b6020830191508360208260051b8501011115620008b057600080fd5b9250929050565b6000806000806000806101808789031215620008d257600080fd5b863567ffffffffffffffff80821115620008eb57600080fd5b818901915089601f8301126200090057600080fd5b8135818111156200091057600080fd5b8a60208285010111156200092357600080fd5b602083019850809750506200093c8a60208b016200084e565b955061014089013594506101608901359150808211156200095c57600080fd5b506200096b89828a0162000868565b979a9699509497509295939492505050565b6000602082840312156200099057600080fd5b6200099b826200079a565b9392505050565b60018060a01b038316815260006020604081840152835180604085015260005b81811015620009e057858101830151858201606001528201620009c2565b81811115620009f3576000606083870101525b50601f01601f191692909201606001949350505050565b8183526000602080850194508260005b8581101562000a4a576001600160a01b0362000a36836200079a565b168752958201959082019060010162000a1a565b509495945050505050565b61028081528a61028082015260006102a08c8e828501376000818e85010152601f19601f8e0116830160018060a01b03808e1660208601528c35604086015260208d0135606086015260408d0135608086015260608d013560a086015260808d013560c086015260a08d013560e086015260c08d01356003811062000ad957600080fd5b6101008601528062000aee60e08f016200079a565b16610120860152506101008c01356101408501528a546001600160a01b031661016085015260018b015461018085015260028b01546101a085015260038b01546101c08501526001600160a01b038a166101e0850152886102008501528761022085015262000b696102408501886001600160a01b03169052565b818482030161026085015262000b83828201868862000a0a565b9f9e50505050505050505050505050505056fe608060405260405161092738038061092783398101604081905261002291610474565b61002e82826000610035565b505061059e565b61003e8361010f565b6040516001600160a01b038416907f1cf3b03a6cf19fa2baba4df148e9dcabedea7f8a5c07840e207e5c089be95d3e90600090a260008251118061007f5750805b1561010a57610108836001600160a01b0316635c60da1b6040518163ffffffff1660e01b815260040160206040518083038186803b1580156100c057600080fd5b505afa1580156100d4573d6000803e3d6000fd5b505050506040513d601f19601f820116820180604052508101906100f89190610534565b836102c160201b6100291760201c565b505b505050565b610122816102ed60201b6100551760201c565b6101815760405162461bcd60e51b815260206004820152602560248201527f455243313936373a206e657720626561636f6e206973206e6f74206120636f6e6044820152641d1c9858dd60da1b60648201526084015b60405180910390fd5b610204816001600160a01b0316635c60da1b6040518163ffffffff1660e01b815260040160206040518083038186803b1580156101bd57600080fd5b505afa1580156101d1573d6000803e3d6000fd5b505050506040513d601f19601f820116820180604052508101906101f59190610534565b6102ed60201b6100551760201c565b6102695760405162461bcd60e51b815260206004820152603060248201527f455243313936373a20626561636f6e20696d706c656d656e746174696f6e206960448201526f1cc81b9bdd08184818dbdb9d1c9858dd60821b6064820152608401610178565b806102a07fa3f0ad74e5423aebfd80d3ef4346578335a9a72aeaee59ff6cb3582b35133d5060001b6102fc60201b6100641760201c565b80546001600160a01b0319166001600160a01b039290921691909117905550565b60606102e68383604051806060016040528060278152602001610900602791396102ff565b9392505050565b6001600160a01b03163b151590565b90565b60606001600160a01b0384163b6103675760405162461bcd60e51b815260206004820152602660248201527f416464726573733a2064656c65676174652063616c6c20746f206e6f6e2d636f6044820152651b9d1c9858dd60d21b6064820152608401610178565b600080856001600160a01b031685604051610382919061054f565b600060405180830381855af49150503d80600081146103bd576040519150601f19603f3d011682016040523d82523d6000602084013e6103c2565b606091505b5090925090506103d38282866103dd565b9695505050505050565b606083156103ec5750816102e6565b8251156103fc5782518084602001fd5b8160405162461bcd60e51b8152600401610178919061056b565b80516001600160a01b038116811461042d57600080fd5b919050565b634e487b7160e01b600052604160045260246000fd5b60005b8381101561046357818101518382015260200161044b565b838111156101085750506000910152565b6000806040838503121561048757600080fd5b61049083610416565b60208401519092506001600160401b03808211156104ad57600080fd5b818501915085601f8301126104c157600080fd5b8151818111156104d3576104d3610432565b604051601f8201601f19908116603f011681019083821181831017156104fb576104fb610432565b8160405282815288602084870101111561051457600080fd5b610525836020830160208801610448565b80955050505050509250929050565b60006020828403121561054657600080fd5b6102e682610416565b60008251610561818460208701610448565b9190910192915050565b602081526000825180602084015261058a816040850160208701610448565b601f01601f19169190910160400192915050565b610353806105ad6000396000f3fe60806040523661001357610011610017565b005b6100115b610027610022610067565b61010f565b565b606061004e83836040518060600160405280602781526020016102f760279139610133565b9392505050565b6001600160a01b03163b151590565b90565b600061009a7fa3f0ad74e5423aebfd80d3ef4346578335a9a72aeaee59ff6cb3582b35133d50546001600160a01b031690565b6001600160a01b0316635c60da1b6040518163ffffffff1660e01b815260040160206040518083038186803b1580156100d257600080fd5b505afa1580156100e6573d6000803e3d6000fd5b505050506040513d601f19601f8201168201806040525081019061010a919061024e565b905090565b3660008037600080366000845af43d6000803e80801561012e573d6000f35b3d6000fd5b60606001600160a01b0384163b6101a05760405162461bcd60e51b815260206004820152602660248201527f416464726573733a2064656c65676174652063616c6c20746f206e6f6e2d636f6044820152651b9d1c9858dd60d21b60648201526084015b60405180910390fd5b600080856001600160a01b0316856040516101bb91906102a7565b600060405180830381855af49150503d80600081146101f6576040519150601f19603f3d011682016040523d82523d6000602084013e6101fb565b606091505b509150915061020b828286610215565b9695505050505050565b6060831561022457508161004e565b8251156102345782518084602001fd5b8160405162461bcd60e51b815260040161019791906102c3565b60006020828403121561026057600080fd5b81516001600160a01b038116811461004e57600080fd5b60005b8381101561029257818101518382015260200161027a565b838111156102a1576000848401525b50505050565b600082516102b9818460208701610277565b9190910192915050565b60208152600082518060208401526102e2816040850160208701610277565b601f01601f1916919091016040019291505056fe416464726573733a206c6f772d6c6576656c2064656c65676174652063616c6c206661696c6564a26469706673582212200ef9d27fce5798cd4a891ef88062917bde44c850e9656b8713f5943eca66c23564736f6c63430008090033416464726573733a206c6f772d6c6576656c2064656c65676174652063616c6c206661696c6564a2646970667358221220fee2dbe2b774d8ae55974c7da24a0c638313f416f560a89957c6c7084806bfa464736f6c63430008090033",
  "linkReferences": {},
  "deployedLinkReferences": {}
}