{
  "_format": "hh-sol-artifact-1",
  "contractName": "Fund",
  "sourceName": "contracts/funds/Fund.sol",
  "abi": [
    {
      "inputs": [],
      "stateMutability": "nonpayable",
      "type": "constructor"
    },
    {
      "anonymous": false,
      "inputs": [
        {
          "indexed": true,
          "internalType": "address",
          "name": "fundAddr",
          "type": "address"
        }
      ],
      "name": "Closed",
      "type": "event"
    },
    {
      "anonymous": false,
      "inputs": [
        {
          "indexed": false,
          "internalType": "address",
          "name": "subscriber",
          "type": "address"
        },
        {
          "indexed": false,
          "internalType": "address",
          "name": "token",
          "type": "address"
        },
        {
          "indexed": false,
          "internalType": "uint256",
          "name": "balance",
          "type": "uint256"
        }
      ],
      "name": "Deposit",
      "type": "event"
    },
    {
      "anonymous": false,
      "inputs": [
        {
          "indexed": false,
          "internalType": "uint8",
          "name": "version",
          "type": "uint8"
        }
      ],
      "name": "Initialized",
      "type": "event"
    },
    {
      "anonymous": false,
      "inputs": [
        {
          "indexed": false,
          "internalType": "address",
          "name": "subscriber",
          "type": "address"
        },
        {
          "indexed": false,
          "internalType": "address",
          "name": "token",
          "type": "address"
        },
        {
          "indexed": false,
          "internalType": "uint256",
          "name": "balance",
          "type": "uint256"
        }
      ],
      "name": "Withdraw",
      "type": "event"
    },
    {
      "inputs": [
        {
          "internalType": "bytes32",
          "name": "ruleHash",
          "type": "bytes32"
        }
      ],
      "name": "activateRule",
      "outputs": [],
      "stateMutability": "nonpayable",
      "type": "function"
    },
    {
      "inputs": [
        {
          "internalType": "address[]",
          "name": "investors",
          "type": "address[]"
        }
      ],
      "name": "addInvestorToWhitelist",
      "outputs": [],
      "stateMutability": "nonpayable",
      "type": "function"
    },
    {
      "inputs": [
        {
          "internalType": "bytes32",
          "name": "ruleHash",
          "type": "bytes32"
        },
        {
          "internalType": "uint256[]",
          "name": "collaterals",
          "type": "uint256[]"
        },
        {
          "internalType": "uint256[]",
          "name": "fees",
          "type": "uint256[]"
        }
      ],
      "name": "addRuleCollateral",
      "outputs": [],
      "stateMutability": "nonpayable",
      "type": "function"
    },
    {
      "inputs": [
        {
          "internalType": "bytes32",
          "name": "ruleHash",
          "type": "bytes32"
        }
      ],
      "name": "cancelRule",
      "outputs": [],
      "stateMutability": "nonpayable",
      "type": "function"
    },
    {
      "inputs": [],
      "name": "closeFund",
      "outputs": [],
      "stateMutability": "nonpayable",
      "type": "function"
    },
    {
      "inputs": [
        {
          "components": [
            {
              "internalType": "address",
              "name": "callee",
              "type": "address"
            },
            {
              "internalType": "enum TriggerType",
              "name": "triggerType",
              "type": "uint8"
            },
            {
              "internalType": "bytes",
              "name": "createTimeParams",
              "type": "bytes"
            }
          ],
          "internalType": "struct Trigger[]",
          "name": "triggers",
          "type": "tuple[]"
        },
        {
          "components": [
            {
              "internalType": "address",
              "name": "callee",
              "type": "address"
            },
            {
              "internalType": "bytes",
              "name": "data",
              "type": "bytes"
            },
            {
              "components": [
                {
                  "internalType": "enum TokenType",
                  "name": "t",
                  "type": "uint8"
                },
                {
                  "internalType": "address",
                  "name": "addr",
                  "type": "address"
                },
                {
                  "internalType": "uint256",
                  "name": "id",
                  "type": "uint256"
                }
              ],
              "internalType": "struct Token[]",
              "name": "inputTokens",
              "type": "tuple[]"
            },
            {
              "components": [
                {
                  "internalType": "enum TokenType",
                  "name": "t",
                  "type": "uint8"
                },
                {
                  "internalType": "address",
                  "name": "addr",
                  "type": "address"
                },
                {
                  "internalType": "uint256",
                  "name": "id",
                  "type": "uint256"
                }
              ],
              "internalType": "struct Token[]",
              "name": "outputTokens",
              "type": "tuple[]"
            }
          ],
          "internalType": "struct Action[]",
          "name": "actions",
          "type": "tuple[]"
        },
        {
          "internalType": "bool",
          "name": "activate",
          "type": "bool"
        },
        {
          "internalType": "uint256[]",
          "name": "collaterals",
          "type": "uint256[]"
        },
        {
          "internalType": "uint256[]",
          "name": "fees",
          "type": "uint256[]"
        }
      ],
      "name": "createRule",
      "outputs": [
        {
          "internalType": "bytes32",
          "name": "",
          "type": "bytes32"
        }
      ],
      "stateMutability": "nonpayable",
      "type": "function"
    },
    {
      "inputs": [
        {
          "components": [
            {
              "internalType": "address",
              "name": "callee",
              "type": "address"
            },
            {
              "internalType": "enum TriggerType",
              "name": "triggerType",
              "type": "uint8"
            },
            {
              "internalType": "bytes",
              "name": "createTimeParams",
              "type": "bytes"
            }
          ],
          "internalType": "struct Trigger[][]",
          "name": "triggersArr",
          "type": "tuple[][]"
        },
        {
          "components": [
            {
              "internalType": "address",
              "name": "callee",
              "type": "address"
            },
            {
              "internalType": "bytes",
              "name": "data",
              "type": "bytes"
            },
            {
              "components": [
                {
                  "internalType": "enum TokenType",
                  "name": "t",
                  "type": "uint8"
                },
                {
                  "internalType": "address",
                  "name": "addr",
                  "type": "address"
                },
                {
                  "internalType": "uint256",
                  "name": "id",
                  "type": "uint256"
                }
              ],
              "internalType": "struct Token[]",
              "name": "inputTokens",
              "type": "tuple[]"
            },
            {
              "components": [
                {
                  "internalType": "enum TokenType",
                  "name": "t",
                  "type": "uint8"
                },
                {
                  "internalType": "address",
                  "name": "addr",
                  "type": "address"
                },
                {
                  "internalType": "uint256",
                  "name": "id",
                  "type": "uint256"
                }
              ],
              "internalType": "struct Token[]",
              "name": "outputTokens",
              "type": "tuple[]"
            }
          ],
          "internalType": "struct Action[][]",
          "name": "actionsArr",
          "type": "tuple[][]"
        },
        {
          "internalType": "bool[]",
          "name": "activateArr",
          "type": "bool[]"
        },
        {
          "internalType": "uint256[][]",
          "name": "collateralsArr",
          "type": "uint256[][]"
        },
        {
          "internalType": "uint256[][]",
          "name": "feesArr",
          "type": "uint256[][]"
        }
      ],
      "name": "createRules",
      "outputs": [
        {
          "internalType": "bytes32[]",
          "name": "",
          "type": "bytes32[]"
        }
      ],
      "stateMutability": "nonpayable",
      "type": "function"
    },
    {
      "inputs": [
        {
          "internalType": "bytes32",
          "name": "ruleHash",
          "type": "bytes32"
        }
      ],
      "name": "deactivateRule",
      "outputs": [],
      "stateMutability": "nonpayable",
      "type": "function"
    },
    {
      "inputs": [],
      "name": "degenMode",
      "outputs": [
        {
          "internalType": "bool",
          "name": "",
          "type": "bool"
        }
      ],
      "stateMutability": "view",
      "type": "function"
    },
    {
      "inputs": [
        {
          "components": [
            {
              "internalType": "enum TokenType",
              "name": "t",
              "type": "uint8"
            },
            {
              "internalType": "address",
              "name": "addr",
              "type": "address"
            },
            {
              "internalType": "uint256",
              "name": "id",
              "type": "uint256"
            }
          ],
          "internalType": "struct Token",
          "name": "collateralToken",
          "type": "tuple"
        },
        {
          "internalType": "uint256",
          "name": "amountSent",
          "type": "uint256"
        }
      ],
      "name": "deposit",
      "outputs": [],
      "stateMutability": "payable",
      "type": "function"
    },
    {
      "inputs": [],
      "name": "feeParams",
      "outputs": [
        {
          "internalType": "address",
          "name": "platformFeeWallet",
          "type": "address"
        },
        {
          "internalType": "uint256",
          "name": "subscriberToPlatformFeePercentage",
          "type": "uint256"
        },
        {
          "internalType": "uint256",
          "name": "managerToPlatformFeePercentage",
          "type": "uint256"
        },
        {
          "internalType": "uint256",
          "name": "subscriberToManagerFeePercentage",
          "type": "uint256"
        }
      ],
      "stateMutability": "view",
      "type": "function"
    },
    {
      "inputs": [],
      "name": "getInputTokens",
      "outputs": [
        {
          "components": [
            {
              "internalType": "enum TokenType",
              "name": "t",
              "type": "uint8"
            },
            {
              "internalType": "address",
              "name": "addr",
              "type": "address"
            },
            {
              "internalType": "uint256",
              "name": "id",
              "type": "uint256"
            }
          ],
          "internalType": "struct Token[]",
          "name": "",
          "type": "tuple[]"
        }
      ],
      "stateMutability": "pure",
      "type": "function"
    },
    {
      "inputs": [],
      "name": "getOutputTokens",
      "outputs": [
        {
          "components": [
            {
              "internalType": "enum TokenType",
              "name": "t",
              "type": "uint8"
            },
            {
              "internalType": "address",
              "name": "addr",
              "type": "address"
            },
            {
              "internalType": "uint256",
              "name": "id",
              "type": "uint256"
            }
          ],
          "internalType": "struct Token[]",
          "name": "",
          "type": "tuple[]"
        }
      ],
      "stateMutability": "pure",
      "type": "function"
    },
    {
      "inputs": [],
      "name": "getStatus",
      "outputs": [
        {
          "internalType": "enum FundStatus",
          "name": "",
          "type": "uint8"
        }
      ],
      "stateMutability": "view",
      "type": "function"
    },
    {
      "inputs": [
        {
          "internalType": "address",
          "name": "_manager",
          "type": "address"
        },
        {
          "components": [
            {
              "internalType": "uint256",
              "name": "minCollateralPerSub",
              "type": "uint256"
            },
            {
              "internalType": "uint256",
              "name": "maxCollateralPerSub",
              "type": "uint256"
            },
            {
              "internalType": "uint256",
              "name": "minCollateralTotal",
              "type": "uint256"
            },
            {
              "internalType": "uint256",
              "name": "maxCollateralTotal",
              "type": "uint256"
            },
            {
              "internalType": "uint256",
              "name": "deadline",
              "type": "uint256"
            },
            {
              "internalType": "uint256",
              "name": "lockin",
              "type": "uint256"
            },
            {
              "components": [
                {
                  "internalType": "enum TokenType",
                  "name": "t",
                  "type": "uint8"
                },
                {
                  "internalType": "address",
                  "name": "addr",
                  "type": "address"
                },
                {
                  "internalType": "uint256",
                  "name": "id",
                  "type": "uint256"
                }
              ],
              "internalType": "struct Token",
              "name": "allowedDepositToken",
              "type": "tuple"
            },
            {
              "internalType": "bool",
              "name": "onlyWhitelistedInvestors",
              "type": "bool"
            }
          ],
          "internalType": "struct Subscriptions.Constraints",
          "name": "_constraints",
          "type": "tuple"
        },
        {
          "components": [
            {
              "internalType": "address",
              "name": "platformFeeWallet",
              "type": "address"
            },
            {
              "internalType": "uint256",
              "name": "subscriberToPlatformFeePercentage",
              "type": "uint256"
            },
            {
              "internalType": "uint256",
              "name": "managerToPlatformFeePercentage",
              "type": "uint256"
            },
            {
              "internalType": "uint256",
              "name": "subscriberToManagerFeePercentage",
              "type": "uint256"
            }
          ],
          "internalType": "struct FeeParams",
          "name": "_feeParams",
          "type": "tuple"
        },
        {
          "internalType": "address",
          "name": "_wlServiceAddr",
          "type": "address"
        },
        {
          "internalType": "bytes32",
          "name": "_triggerWhitelistHash",
          "type": "bytes32"
        },
        {
          "internalType": "bytes32",
          "name": "_actionWhitelistHash",
          "type": "bytes32"
        },
        {
          "internalType": "address",
          "name": "roboCopBeaconAddr",
          "type": "address"
        },
        {
          "internalType": "address[]",
          "name": "_declaredTokenAddrs",
          "type": "address[]"
        },
        {
          "internalType": "address",
          "name": "botFrontendAddr",
          "type": "address"
        }
      ],
      "name": "initialize",
      "outputs": [],
      "stateMutability": "nonpayable",
      "type": "function"
    },
    {
      "inputs": [
        {
          "internalType": "address",
          "name": "",
          "type": "address"
        },
        {
          "internalType": "address",
          "name": "",
          "type": "address"
        },
        {
          "internalType": "uint256",
          "name": "",
          "type": "uint256"
        },
        {
          "internalType": "bytes",
          "name": "",
          "type": "bytes"
        }
      ],
      "name": "onERC721Received",
      "outputs": [
        {
          "internalType": "bytes4",
          "name": "",
          "type": "bytes4"
        }
      ],
      "stateMutability": "pure",
      "type": "function"
    },
    {
      "inputs": [],
      "name": "redeemRuleOutputs",
      "outputs": [],
      "stateMutability": "nonpayable",
      "type": "function"
    },
    {
      "inputs": [
        {
          "internalType": "bytes32",
          "name": "ruleHash",
          "type": "bytes32"
        },
        {
          "internalType": "uint256[]",
          "name": "collaterals",
          "type": "uint256[]"
        }
      ],
      "name": "reduceRuleCollateral",
      "outputs": [],
      "stateMutability": "nonpayable",
      "type": "function"
    },
    {
      "inputs": [],
      "name": "roboCop",
      "outputs": [
        {
          "internalType": "contract IRoboCop",
          "name": "",
          "type": "address"
        }
      ],
      "stateMutability": "view",
      "type": "function"
    },
    {
      "inputs": [],
      "name": "subStuff",
      "outputs": [
        {
          "components": [
            {
              "internalType": "uint256",
              "name": "minCollateralPerSub",
              "type": "uint256"
            },
            {
              "internalType": "uint256",
              "name": "maxCollateralPerSub",
              "type": "uint256"
            },
            {
              "internalType": "uint256",
              "name": "minCollateralTotal",
              "type": "uint256"
            },
            {
              "internalType": "uint256",
              "name": "maxCollateralTotal",
              "type": "uint256"
            },
            {
              "internalType": "uint256",
              "name": "deadline",
              "type": "uint256"
            },
            {
              "internalType": "uint256",
              "name": "lockin",
              "type": "uint256"
            },
            {
              "components": [
                {
                  "internalType": "enum TokenType",
                  "name": "t",
                  "type": "uint8"
                },
                {
                  "internalType": "address",
                  "name": "addr",
                  "type": "address"
                },
                {
                  "internalType": "uint256",
                  "name": "id",
                  "type": "uint256"
                }
              ],
              "internalType": "struct Token",
              "name": "allowedDepositToken",
              "type": "tuple"
            },
            {
              "internalType": "bool",
              "name": "onlyWhitelistedInvestors",
              "type": "bool"
            }
          ],
          "internalType": "struct Subscriptions.Constraints",
          "name": "constraints",
          "type": "tuple"
        },
        {
          "internalType": "uint256",
          "name": "totalCollateral",
          "type": "uint256"
        },
        {
          "internalType": "uint256",
          "name": "subscriberToManagerFeePercentage",
          "type": "uint256"
        },
        {
          "internalType": "uint256",
          "name": "subscriberToPlatformFeePercentage",
          "type": "uint256"
        },
        {
          "internalType": "address",
          "name": "platformFeeWallet",
          "type": "address"
        }
      ],
      "stateMutability": "view",
      "type": "function"
    },
    {
      "inputs": [
        {
          "components": [
            {
              "internalType": "address",
              "name": "callee",
              "type": "address"
            },
            {
              "internalType": "enum TriggerType",
              "name": "triggerType",
              "type": "uint8"
            },
            {
              "internalType": "bytes",
              "name": "createTimeParams",
              "type": "bytes"
            }
          ],
          "internalType": "struct Trigger",
          "name": "trigger",
          "type": "tuple"
        },
        {
          "components": [
            {
              "internalType": "address",
              "name": "callee",
              "type": "address"
            },
            {
              "internalType": "bytes",
              "name": "data",
              "type": "bytes"
            },
            {
              "components": [
                {
                  "internalType": "enum TokenType",
                  "name": "t",
                  "type": "uint8"
                },
                {
                  "internalType": "address",
                  "name": "addr",
                  "type": "address"
                },
                {
                  "internalType": "uint256",
                  "name": "id",
                  "type": "uint256"
                }
              ],
              "internalType": "struct Token[]",
              "name": "inputTokens",
              "type": "tuple[]"
            },
            {
              "components": [
                {
                  "internalType": "enum TokenType",
                  "name": "t",
                  "type": "uint8"
                },
                {
                  "internalType": "address",
                  "name": "addr",
                  "type": "address"
                },
                {
                  "internalType": "uint256",
                  "name": "id",
                  "type": "uint256"
                }
              ],
              "internalType": "struct Token[]",
              "name": "outputTokens",
              "type": "tuple[]"
            }
          ],
          "internalType": "struct Action",
          "name": "action",
          "type": "tuple"
        },
        {
          "internalType": "uint256[]",
          "name": "collaterals",
          "type": "uint256[]"
        },
        {
          "internalType": "uint256[]",
          "name": "fees",
          "type": "uint256[]"
        }
      ],
      "name": "takeAction",
      "outputs": [],
      "stateMutability": "nonpayable",
      "type": "function"
    },
    {
      "inputs": [
        {
          "components": [
            {
              "internalType": "address",
              "name": "callee",
              "type": "address"
            },
            {
              "internalType": "enum TriggerType",
              "name": "triggerType",
              "type": "uint8"
            },
            {
              "internalType": "bytes",
              "name": "createTimeParams",
              "type": "bytes"
            }
          ],
          "internalType": "struct Trigger",
          "name": "trigger",
          "type": "tuple"
        },
        {
          "components": [
            {
              "internalType": "address",
              "name": "callee",
              "type": "address"
            },
            {
              "internalType": "bytes",
              "name": "data",
              "type": "bytes"
            },
            {
              "components": [
                {
                  "internalType": "enum TokenType",
                  "name": "t",
                  "type": "uint8"
                },
                {
                  "internalType": "address",
                  "name": "addr",
                  "type": "address"
                },
                {
                  "internalType": "uint256",
                  "name": "id",
                  "type": "uint256"
                }
              ],
              "internalType": "struct Token[]",
              "name": "inputTokens",
              "type": "tuple[]"
            },
            {
              "components": [
                {
                  "internalType": "enum TokenType",
                  "name": "t",
                  "type": "uint8"
                },
                {
                  "internalType": "address",
                  "name": "addr",
                  "type": "address"
                },
                {
                  "internalType": "uint256",
                  "name": "id",
                  "type": "uint256"
                }
              ],
              "internalType": "struct Token[]",
              "name": "outputTokens",
              "type": "tuple[]"
            }
          ],
          "internalType": "struct Action",
          "name": "action",
          "type": "tuple"
        },
        {
          "internalType": "uint256[]",
          "name": "collaterals",
          "type": "uint256[]"
        },
        {
          "internalType": "uint256[]",
          "name": "fees",
          "type": "uint256[]"
        }
      ],
      "name": "takeActionToClosePosition",
      "outputs": [],
      "stateMutability": "nonpayable",
      "type": "function"
    },
    {
      "inputs": [],
      "name": "withdraw",
      "outputs": [
        {
          "components": [
            {
              "internalType": "enum TokenType",
              "name": "t",
              "type": "uint8"
            },
            {
              "internalType": "address",
              "name": "addr",
              "type": "address"
            },
            {
              "internalType": "uint256",
              "name": "id",
              "type": "uint256"
            }
          ],
          "internalType": "struct Token[]",
          "name": "tokens",
          "type": "tuple[]"
        },
        {
          "internalType": "uint256[]",
          "name": "balances",
          "type": "uint256[]"
        }
      ],
      "stateMutability": "nonpayable",
      "type": "function"
    },
    {
      "inputs": [],
      "name": "withdrawManagementFee",
      "outputs": [
        {
          "components": [
            {
              "internalType": "enum TokenType",
              "name": "t",
              "type": "uint8"
            },
            {
              "internalType": "address",
              "name": "addr",
              "type": "address"
            },
            {
              "internalType": "uint256",
              "name": "id",
              "type": "uint256"
            }
          ],
          "internalType": "struct Token[]",
          "name": "",
          "type": "tuple[]"
        },
        {
          "internalType": "uint256[]",
          "name": "",
          "type": "uint256[]"
        }
      ],
      "stateMutability": "nonpayable",
      "type": "function"
    },
    {
      "inputs": [],
      "name": "wlService",
      "outputs": [
        {
          "internalType": "contract WhitelistService",
          "name": "",
          "type": "address"
        }
      ],
      "stateMutability": "view",
      "type": "function"
    },
    {
      "stateMutability": "payable",
      "type": "receive"
    }
  ],
  "bytecode": "0x60806040523480156200001157600080fd5b506200001c62000022565b620000e4565b600054610100900460ff16156200008f5760405162461bcd60e51b815260206004820152602760248201527f496e697469616c697a61626c653a20636f6e747261637420697320696e697469604482015266616c697a696e6760c81b606482015260840160405180910390fd5b60005460ff9081161015620000e2576000805460ff191660ff9081179091556040519081527f7f26b83ff96e1f2b6a682f133852f6798a09c465da95921460cefb38474024989060200160405180910390a15b565b615ba480620000f46000396000f3fe608060405260043610620001885760003560e01c806379150b7c11620000e25780639242164f1162000095578063e3a1c6fe116200006c578063e3a1c6fe1462000513578063eab4ebd5146200052b578063eb9d4c351462000552578063fff8c14c146200056a57600080fd5b80639242164f1462000475578063db11e47214620004ce578063df1a701c14620004e657600080fd5b806379150b7c14620003895780637ff6251214620003ae57806381be916014620003d95780638b5eea0d14620003fe5780638ddceb3914620004155780638f503cc7146200045057600080fd5b806347a1a500116200013b57806347a1a50014620002a7578063496148ef14620002cc5780634e69d56014620002f1578063664b185a146200031857806370b36bcd146200034c578063721c8da9146200037157600080fd5b8063150b7a0214620001955780632499403814620001d857806339502e4214620001ff5780633ccfd60b146200023357806344dfed33146200025b578063454dcb45146200028057600080fd5b366200019057005b600080fd5b348015620001a257600080fd5b50620001ba620001b4366004620037fb565b6200058f565b6040516001600160e01b031990911681526020015b60405180910390f35b348015620001e557600080fd5b50620001fd620001f7366004620038a2565b620005a1565b005b3480156200020c57600080fd5b50620002246200021e36600462003926565b62000655565b604051908152602001620001cf565b3480156200024057600080fd5b506200024b6200078a565b604051620001cf92919062003ae0565b3480156200026857600080fd5b50620001fd6200027a36600462003b09565b62000b0a565b3480156200028d57600080fd5b506200029862000c21565b604051620001cf919062003b89565b348015620002b457600080fd5b50620001fd620002c636600462003bbe565b62000c59565b348015620002d957600080fd5b50620001fd620002eb36600462003c8a565b62000df2565b348015620002fe57600080fd5b506200030962000ed6565b604051620001cf919062003cec565b3480156200032557600080fd5b506200033d6200033736600462003d01565b62000fab565b604051620001cf919062003e01565b3480156200035957600080fd5b50620001fd6200036b36600462003e47565b6200123b565b3480156200037e57600080fd5b506200024b6200139a565b3480156200039657600080fd5b50620001fd620003a836600462003bbe565b62001758565b348015620003bb57600080fd5b50620003c6620017f0565b604051620001cf95949392919062003e8c565b348015620003e657600080fd5b50620001fd620003f8366004620038a2565b620018ce565b620001fd6200040f3660046200406a565b620019c7565b3480156200042257600080fd5b5060475462000437906001600160a01b031681565b6040516001600160a01b039091168152602001620001cf565b3480156200045d57600080fd5b50620001fd6200046f36600462004098565b62001ba8565b3480156200048257600080fd5b50604354604454604554604654620004a3936001600160a01b031692919084565b604080516001600160a01b0390951685526020850193909352918301526060820152608001620001cf565b348015620004db57600080fd5b50620002986200214a565b348015620004f357600080fd5b50604254620005029060ff1681565b6040519015158152602001620001cf565b3480156200052057600080fd5b50620001fd620021e9565b3480156200053857600080fd5b50604254620004379061010090046001600160a01b031681565b3480156200055f57600080fd5b50620001fd6200237e565b3480156200057757600080fd5b50620001fd62000589366004620038a2565b62002427565b630a85bd0160e11b5b95945050505050565b600180620005ae62000ed6565b6003811115620005c257620005c262003a0f565b14620005eb5760405162461bcd60e51b8152600401620005e290620041e0565b60405180910390fd5b6033546001600160a01b03163314620006185760405162461bcd60e51b8152600401620005e29062004208565b6002600154036200063d5760405162461bcd60e51b8152600401620005e29062004234565b60026001556200064d82620024f8565b505060018055565b60006002600154036200067c5760405162461bcd60e51b8152600401620005e29062004234565b60026001908155806200068e62000ed6565b6003811115620006a257620006a262003a0f565b14620006c25760405162461bcd60e51b8152600401620005e290620041e0565b6033546001600160a01b03163314620006ef5760405162461bcd60e51b8152600401620005e29062004208565b62000777620006ff8b8d6200438e565b6200070b8a8c62004537565b8989898080602002602001604051908101604052809392919081815260200183836020028082843760009201919091525050604080516020808d0282810182019093528c82529093508c92508b9182918501908490808284376000920191909152506200260e92505050565b600180559b9a5050505050505050505050565b606080600260015403620007b25760405162461bcd60e51b8152600401620005e29062004234565b60026001556000620007c362000ed6565b90506002816003811115620007dc57620007dc62003a0f565b03620008105760405162461bcd60e51b8152602060048201526002602482015261214360f01b6044820152606401620005e2565b600081600381111562000827576200082762003a0f565b036200091e57336000818152603d602090815260409182902054825193845273eeeeeeeeeeeeeeeeeeeeeeeeeeeeeeeeeeeeeeee9184019190915282820152517f9b1bfa7fa9ee420a16e124f794c35ac9f90472acc99140eb2f6447c714cad8eb9181900360600190a16040516309cb21db60e11b815260346004820152604c602482015273__$1e8b217276a9688518c4b39ef4c03aba93$__9063139643b690604401600060405180830381865af4158015620008e9573d6000803e3d6000fd5b505050506040513d6000823e601f3d908101601f19168201604052620009139190810190620046bb565b909350915062000b01565b600381600381111562000935576200093562003a0f565b0362000a825760405163422806e760e01b815260346004820152604c602482015273__$1e8b217276a9688518c4b39ef4c03aba93$__9063422806e790604401600060405180830381865af415801562000993573d6000803e3d6000fd5b505050506040513d6000823e601f3d908101601f19168201604052620009bd9190810190620046bb565b909350915060005b835181101562000a7b577f9b1bfa7fa9ee420a16e124f794c35ac9f90472acc99140eb2f6447c714cad8eb3385838151811062000a065762000a0662004725565b60200260200101516020015185848151811062000a275762000a2762004725565b602002602001015160405162000a5e939291906001600160a01b039384168152919092166020820152604081019190915260600190565b60405180910390a18062000a728162004751565b915050620009c5565b5062000b01565b600181600381111562000a995762000a9962003a0f565b0362000acc5760405162461bcd60e51b81526020600482015260016024820152601160fa1b6044820152606401620005e2565b60405180606001604052806022815260200162005b4d6022913960405162461bcd60e51b8152600401620005e29190620047c1565b50600180559091565b60018062000b1762000ed6565b600381111562000b2b5762000b2b62003a0f565b1462000b4b5760405162461bcd60e51b8152600401620005e290620041e0565b6033546001600160a01b0316331462000b785760405162461bcd60e51b8152600401620005e29062004208565b60026001540362000b9d5760405162461bcd60e51b8152600401620005e29062004234565b600260018190555062000c158686868080602002602001604051908101604052809392919081815260200183836020028082843760009201919091525050604080516020808a02828101820190935289825290935089925088918291850190849080828437600092019190915250620029df92505050565b50506001805550505050565b60405162461bcd60e51b8152602060048201526009602482015268155b9919599a5b995960ba1b6044820152606090606401620005e2565b60026001540362000c7e5760405162461bcd60e51b8152600401620005e29062004234565b600260019081558062000c9062000ed6565b600381111562000ca45762000ca462003a0f565b1462000cc45760405162461bcd60e51b8152600401620005e290620041e0565b60395442101562000d0d5760405162461bcd60e51b8152602060048201526012602482015271118e881b9bdd08195e1c1a5c9959081e595d60721b6044820152606401620005e2565b60425460405163437b188160e01b81526101009091046001600160a01b03169063437b18819062000d43908990600401620048b6565b602060405180830381865afa15801562000d61573d6000803e3d6000fd5b505050506040513d601f19601f8201168201806040525081019062000d8791906200498f565b62000dd55760405162461bcd60e51b815260206004820152601c60248201527f463a206e6f2072656c6576616e74206f70656e20706f736974696f6e000000006044820152606401620005e2565b62000de587878787878762002cbf565b5050600180555050505050565b60018062000dff62000ed6565b600381111562000e135762000e1362003a0f565b1462000e335760405162461bcd60e51b8152600401620005e290620041e0565b6033546001600160a01b0316331462000e605760405162461bcd60e51b8152600401620005e29062004208565b60026001540362000e855760405162461bcd60e51b8152600401620005e29062004234565b600260018190555062000ecc8484848080602002602001604051908101604052809392919081815260200183836020028082843760009201919091525062002eb292505050565b5050600180555050565b604e5460009060ff161562000eeb5750600390565b60385442101562000efc5750600090565b603654603e54101562000f0f5750600290565b60395442101562000f205750600190565b604260019054906101000a90046001600160a01b03166001600160a01b031663aea577686040518163ffffffff1660e01b8152600401602060405180830381865afa15801562000f74573d6000803e3d6000fd5b505050506040513d601f19601f8201168201806040525081019062000f9a91906200498f565b62000fa55750600290565b50600190565b606060026001540362000fd25760405162461bcd60e51b8152600401620005e29062004234565b600260019081558062000fe462000ed6565b600381111562000ff85762000ff862003a0f565b14620010185760405162461bcd60e51b8152600401620005e290620041e0565b6033546001600160a01b03163314620010455760405162461bcd60e51b8152600401620005e29062004208565b60008b6001600160401b0381111562001062576200106262003f23565b6040519080825280602002602001820160405280156200108c578160200160208202803683370190505b50905060005b8c8110156200122657620011f18e8e83818110620010b457620010b462004725565b9050602002810190620010c89190620049af565b620010d3916200438e565b8d8d84818110620010e857620010e862004725565b9050602002810190620010fc9190620049af565b620011079162004537565b8c8c858181106200111c576200111c62004725565b9050602002016020810190620011339190620049fb565b8b8b8681811062001148576200114862004725565b90506020028101906200115c9190620049af565b808060200260200160405190810160405280939291908181526020018383602002808284376000920191909152508d92508c9150889050818110620011a557620011a562004725565b9050602002810190620011b99190620049af565b808060200260200160405190810160405280939291908181526020018383602002808284376000920191909152506200260e92505050565b82828151811062001206576200120662004725565b6020908102919091010152806200121d8162004751565b91505062001092565b50600180559c9b505050505050505050505050565b6033546001600160a01b03163314620012685760405162461bcd60e51b8152600401620005e29062004208565b6000806200127562000ed6565b600381111562001289576200128962003a0f565b14620012a95760405162461bcd60e51b8152600401620005e290620041e0565b600260015403620012ce5760405162461bcd60e51b8152600401620005e29062004234565b600260015560005b8281101562000ecc57604754604b546001600160a01b039091169063fd5862a4908686858181106200130c576200130c62004725565b905060200201602081019062001323919062004a1b565b6040516001600160e01b031960e085901b16815260048101929092526001600160a01b03166024820152604401600060405180830381600087803b1580156200136b57600080fd5b505af115801562001380573d6000803e3d6000fd5b505050508080620013919062004751565b915050620012d6565b60335460609081906001600160a01b03163314620013cc5760405162461bcd60e51b8152600401620005e29062004208565b600380620013d962000ed6565b6003811115620013ed57620013ed62003a0f565b146200140d5760405162461bcd60e51b8152600401620005e290620041e0565b600260015403620014325760405162461bcd60e51b8152600401620005e29062004234565b6002600155604c546000906001600160401b0381111562001457576200145762003f23565b604051908082528060200260200182016040528015620014a457816020015b6040805160608101825260008082526020808301829052928201528252600019909201910181620014765790505b50604c549091506000906001600160401b03811115620014c857620014c862003f23565b604051908082528060200260200182016040528015620014f2578160200160208202803683370190505b50905060005b604c548110156200174957604c8054829081106200151a576200151a62004725565b90600052602060002090600202016040518060600160405290816000820160009054906101000a900460ff1660028111156200155a576200155a62003a0f565b60028111156200156e576200156e62003a0f565b8152815461010090046001600160a01b031660208201526001909101546040909101528351849083908110620015a857620015a862004725565b6020026020010181905250603473__$1e8b217276a9688518c4b39ef4c03aba93$__639643c2719091604c868581518110620015e857620015e862004725565b60200260200101516040518463ffffffff1660e01b8152600401620016109392919062004a3b565b602060405180830381865af41580156200162e573d6000803e3d6000fd5b505050506040513d601f19601f8201168201806040525081019062001654919062004a60565b82828151811062001669576200166962004725565b6020026020010181815250508281815181106200168a576200168a62004725565b602002602001015173__$73ba9acb7a266bb144fecabb2d69a75f38$__63d90d23e89091603360009054906101000a90046001600160a01b0316858581518110620016d957620016d962004725565b60200260200101516040518463ffffffff1660e01b8152600401620017019392919062004a7a565b60006040518083038186803b1580156200171a57600080fd5b505af41580156200172f573d6000803e3d6000fd5b505050508080620017409062004751565b915050620014f8565b50909350915050600180559091565b6002600154036200177d5760405162461bcd60e51b8152600401620005e29062004234565b60026001908155806200178f62000ed6565b6003811115620017a357620017a362003a0f565b14620017c35760405162461bcd60e51b8152600401620005e290620041e0565b6033546001600160a01b0316331462000dd55760405162461bcd60e51b8152600401620005e29062004208565b6040805161010081018252603480548252603554602083015260365482840152603754606080840191909152603854608084015260395460a08401528351908101909352603a80549193849260c085019290829060ff1660028111156200185b576200185b62003a0f565b60028111156200186f576200186f62003a0f565b815281546001600160a01b0361010090910481166020808401919091526001909301546040909201919091529183526008939093015460ff1615159190920152600a830154600b840154600c850154600d909501549394919390921685565b600180620018db62000ed6565b6003811115620018ef57620018ef62003a0f565b146200190f5760405162461bcd60e51b8152600401620005e290620041e0565b6033546001600160a01b031633146200193c5760405162461bcd60e51b8152600401620005e29062004208565b600260015403620019615760405162461bcd60e51b8152600401620005e29062004234565b600260015560425460405163040df48b60e51b8152600481018490526101009091046001600160a01b0316906381be9160906024015b600060405180830381600087803b158015620019b257600080fd5b505af115801562000c15573d6000803e3d6000fd5b600080620019d462000ed6565b6003811115620019e857620019e862003a0f565b1462001a085760405162461bcd60e51b8152600401620005e290620041e0565b603c5460ff16158062001a905750604754604b5460405163f409981160e01b815260048101919091523360248201526001600160a01b039091169063f409981190604401602060405180830381865afa15801562001a6a573d6000803e3d6000fd5b505050506040513d601f19601f8201168201806040525081019062001a9091906200498f565b62001ade5760405162461bcd60e51b815260206004820152601b60248201527f463a206f6e6c7957686974656c6973746564496e766573746f727300000000006044820152606401620005e2565b60405163ead640b960e01b815273__$1e8b217276a9688518c4b39ef4c03aba93$__9063ead640b99062001b1f90603490604c908890889060040162004aa4565b60006040518083038186803b15801562001b3857600080fd5b505af415801562001b4d573d6000803e3d6000fd5b505050602080850151604080513381526001600160a01b03909216928201929092529081018490527f5548c837ab068cf56a2c2479df0882a4922fd203edb7517321831d95078c5f62915060600160405180910390a1505050565b60026001540362001bcd5760405162461bcd60e51b8152600401620005e29062004234565b6002600155600054610100900460ff161580801562001bf35750600054600160ff909116105b8062001c0f5750303b15801562001c0f575060005460ff166001145b62001c745760405162461bcd60e51b815260206004820152602e60248201527f496e697469616c697a61626c653a20636f6e747261637420697320616c72656160448201526d191e481a5b9a5d1a585b1a5e995960921b6064820152608401620005e2565b6000805460ff19166001179055801562001c98576000805461ff0019166101001790555b62001ca26200306d565b603380546001600160a01b0319166001600160a01b038d1617905588604362001ccc828262004ad0565b5050604780546001600160a01b0319166001600160a01b038a1617905560488790556049869055600083900362001d10576042805460ff1916600117905562001e6d565b6047546040805180820182526006815265746f6b656e7360d01b60208201529051633bf388a360e11b81526001600160a01b03909216916377e711469162001d5b91600401620047c1565b6020604051808303816000875af115801562001d7b573d6000803e3d6000fd5b505050506040513d601f19601f8201168201806040525081019062001da1919062004a60565b604a5560005b8381101562001e6b57604754604a546001600160a01b039091169063fd5862a49087878581811062001ddd5762001ddd62004725565b905060200201602081019062001df4919062004a1b565b6040516001600160e01b031960e085901b16815260048101929092526001600160a01b03166024820152604401600060405180830381600087803b15801562001e3c57600080fd5b505af115801562001e51573d6000803e3d6000fd5b50505050808062001e629062004751565b91505062001da7565b505b8960e001511562001f10576047546040805180820182526009815268696e766573746f727360b81b60208201529051633bf388a360e11b81526001600160a01b03909216916377e711469162001ec691600401620047c1565b6020604051808303816000875af115801562001ee6573d6000803e3d6000fd5b505050506040513d601f19601f8201168201806040525081019062001f0c919062004a60565b604b555b604051633bc8380f60e11b815273__$1e8b217276a9688518c4b39ef4c03aba93$__90637790701e9062001f4c906034908e9060040162004b1a565b60006040518083038186803b15801562001f6557600080fd5b505af415801562001f7a573d6000803e3d6000fd5b5073__$1e8b217276a9688518c4b39ef4c03aba93$__925063617fbbf791506034905060608c013560208d0180359062001fb5908f62004a1b565b6040516001600160e01b031960e087901b1681526004810194909452602484019290925260448301526001600160a01b0316606482015260840160006040518083038186803b1580156200200857600080fd5b505af41580156200201d573d6000803e3d6000fd5b50505050846040516200203090620037c2565b6001600160a01b039091168152604060208201819052600090820152606001604051809103906000f0801580156200206c573d6000803e3d6000fd5b5060428054610100600160a81b0319166101006001600160a01b039384168102919091179182905560405163485cc95560e01b8152306004820152858416602482015291049091169063485cc95590604401600060405180830381600087803b158015620020d957600080fd5b505af1158015620020ee573d6000803e3d6000fd5b50505050801562002139576000805461ff0019169055604051600181527f7f26b83ff96e1f2b6a682f133852f6798a09c465da95921460cefb38474024989060200160405180910390a15b505060018055505050505050505050565b60408051600180825281830190925260609160009190816020015b60408051606081018252600080825260208083018290529282015282526000199092019101816200216557505060408051606081018252600080825273eeeeeeeeeeeeeeeeeeeeeeeeeeeeeeeeeeeeeeee6020830152918101829052825192935091839190620021d957620021d962004725565b6020908102919091010152919050565b6002600154036200220e5760405162461bcd60e51b8152600401620005e29062004234565b6002600181905550604260019054906101000a90046001600160a01b03166001600160a01b031663aea577686040518163ffffffff1660e01b8152600401602060405180830381865afa1580156200226a573d6000803e3d6000fd5b505050506040513d601f19601f820116820180604052508101906200229091906200498f565b15620022d65760405162461bcd60e51b8152602060048201526014602482015273463a2050656e64696e6720506f736974696f6e7360601b6044820152606401620005e2565b6002620022e262000ed6565b6003811115620022f657620022f662003a0f565b036200231557603654603e5410156200230f576000603f555b6200236e565b6033546001600160a01b03163314620023685760405162461bcd60e51b8152602060048201526014602482015273231d1027b7363c90233ab7321026b0b730b3b2b960611b6044820152606401620005e2565b6000603f555b62002378620030a3565b60018055565b6001806200238b62000ed6565b60038111156200239f576200239f62003a0f565b14620023bf5760405162461bcd60e51b8152600401620005e290620041e0565b6033546001600160a01b03163314620023ec5760405162461bcd60e51b8152600401620005e29062004208565b600260015403620024115760405162461bcd60e51b8152600401620005e29062004234565b60026001556200242062003278565b5060018055565b6001806200243462000ed6565b600381111562002448576200244862003a0f565b14620024685760405162461bcd60e51b8152600401620005e290620041e0565b6033546001600160a01b03163314620024955760405162461bcd60e51b8152600401620005e29062004208565b600260015403620024ba5760405162461bcd60e51b8152600401620005e29062004234565b600260015560425460405160016201cfad60e21b03198152600481018490526101009091046001600160a01b03169063fff8c14c9060240162001997565b60425460405163f7cab84760e01b81526004810183905260009161010090046001600160a01b03169063f7cab84790602401600060405180830381865afa15801562002548573d6000803e3d6000fd5b505050506040513d6000823e601f3d908101601f1916820160405262002572919081019062004e04565b90506001816060015160038111156200258f576200258f62003a0f565b14620025fa5760425460405163040df48b60e51b8152600481018490526101009091046001600160a01b0316906381be916090602401600060405180830381600087803b158015620025e057600080fd5b505af1158015620025f5573d6000803e3d6000fd5b505050505b6200260a82826040015162002eb2565b5050565b6000805b8651811015620027275760475460485488516001600160a01b039092169163f409981191908a90859081106200264c576200264c62004725565b6020026020010151600001516040518363ffffffff1660e01b8152600401620026889291909182526001600160a01b0316602082015260400190565b602060405180830381865afa158015620026a6573d6000803e3d6000fd5b505050506040513d601f19601f82011682018060405250810190620026cc91906200498f565b620027125760405162461bcd60e51b8152602060048201526015602482015274231d1010a0baba3437b934bd32b22a3934b3b3b2b960591b6044820152606401620005e2565b806200271e8162004751565b91505062002612565b5060005b85518110156200283f5760475460495487516001600160a01b039092169163f4099811919089908590811062002765576200276562004725565b6020026020010151600001516040518363ffffffff1660e01b8152600401620027a19291909182526001600160a01b0316602082015260400190565b602060405180830381865afa158015620027bf573d6000803e3d6000fd5b505050506040513d601f19601f82011682018060405250810190620027e591906200498f565b6200282a5760405162461bcd60e51b8152602060048201526014602482015273231d1010a0baba3437b934bd32b220b1ba34b7b760611b6044820152606401620005e2565b80620028368162004751565b9150506200272b565b5060005b8551811015620028d1576200287886828151811062002866576200286662004725565b602002602001015160600151620033d1565b620028bc5760405162461bcd60e51b8152602060048201526013602482015272231d1010a0baba3437b934bd32b22a37b5b2b760691b6044820152606401620005e2565b80620028c88162004751565b91505062002843565b50604254604051632e84a91960e01b81526101009091046001600160a01b031690632e84a919906200290a908990899060040162004ff2565b6020604051808303816000875af11580156200292a573d6000803e3d6000fd5b505050506040513d601f19601f8201168201806040525081019062002950919062004a60565b835190915015620029685762002968818484620029df565b8315620005985760425460405160016201cfad60e21b03198152600481018390526101009091046001600160a01b03169063fff8c14c90602401600060405180830381600087803b158015620029bd57600080fd5b505af1158015620029d2573d6000803e3d6000fd5b5050505095945050505050565b60425460405163e92a0fcf60e01b81526004810185905260009161010090046001600160a01b03169063e92a0fcf90602401600060405180830381865afa15801562002a2f573d6000803e3d6000fd5b505050506040513d6000823e601f3d908101601f1916820160405262002a5991908101906200509c565b905062002a68818484620034d1565b6000805b825181101562002c4957600083828151811062002a8d5762002a8d62004725565b60200260200101519050600086838151811062002aae5762002aae62004725565b60200260200101519050604c73__$d84a6fe642bab30af710ab25b73b82ca77$__6302d32526909184846040518463ffffffff1660e01b815260040162002af893929190620050d4565b60006040518083038186803b15801562002b1157600080fd5b505af415801562002b26573d6000803e3d6000fd5b5050604254604051632ed1e7c160e01b815273__$73ba9acb7a266bb144fecabb2d69a75f38$__9350632ed1e7c1925062002b789186916101009091046001600160a01b031690869060040162004a7a565b60006040518083038186803b15801562002b9157600080fd5b505af415801562002ba6573d6000803e3d6000fd5b505060405163ae5c7d2760e01b815273__$73ba9acb7a266bb144fecabb2d69a75f38$__925063ae5c7d27915062002be3908590600401620050f8565b602060405180830381865af415801562002c01573d6000803e3d6000fd5b505050506040513d601f19601f8201168201806040525081019062002c2791906200498f565b1562002c31578093505b5050808062002c409062004751565b91505062002a6c565b50604254604051634bb951cd60e11b81526101009091046001600160a01b031690639772a39a90839062002c8490899089906004016200510e565b6000604051808303818588803b15801562002c9e57600080fd5b505af115801562002cb3573d6000803e3d6000fd5b50505050505050505050565b604080516001808252818301909252600091816020015b6040805160608082018352600080835260208301529181019190915281526020019060019003908162002cd657905050905062002d138762005129565b8160008151811062002d295762002d2962004725565b6020908102919091010152604080516001808252818301909252600091816020015b62002d80604051806080016040528060006001600160a01b031681526020016060815260200160608152602001606081525090565b81526020019060019003908162002d4b57905050905062002da18762005137565b8160008151811062002db75762002db762004725565b6020026020010181905250600062002e37838360018a8a8080602002602001604051908101604052809392919081815260200183836020028082843760009201919091525050604080516020808e0282810182019093528d82529093508d92508c9182918501908490808284376000920191909152506200260e92505050565b604254604051630d13ff1160e11b81526004810183905291925061010090046001600160a01b031690631a27fe2290602401600060405180830381600087803b15801562002e8457600080fd5b505af115801562002e99573d6000803e3d6000fd5b5050505062002ea762003278565b505050505050505050565b60425460405163e92a0fcf60e01b81526004810184905260009161010090046001600160a01b03169063e92a0fcf90602401600060405180830381865afa15801562002f02573d6000803e3d6000fd5b505050506040513d6000823e601f3d908101601f1916820160405262002f2c91908101906200509c565b604254604051638238425560e01b815291925061010090046001600160a01b03169063823842559062002f6690869086906004016200510e565b600060405180830381600087803b15801562002f8157600080fd5b505af115801562002f96573d6000803e3d6000fd5b5050505060005b81518110156200306757604c73__$d84a6fe642bab30af710ab25b73b82ca77$__637bdd0ab0909184848151811062002fda5762002fda62004725565b602002602001015186858151811062002ff75762002ff762004725565b60200260200101516040518463ffffffff1660e01b81526004016200301f93929190620050d4565b60006040518083038186803b1580156200303857600080fd5b505af41580156200304d573d6000803e3d6000fd5b5050505080806200305e9062004751565b91505062002f9d565b50505050565b600054610100900460ff16620030975760405162461bcd60e51b8152600401620005e29062005145565b620030a162003798565b565b604e805460ff19166001179055620030ba62003278565b60425460405162d1742360e51b815260009161010090046001600160a01b031690631a2e846090620030f190849060040162003cec565b6000604051808303816000875af115801562003111573d6000803e3d6000fd5b505050506040513d6000823e601f3d908101601f191682016040526200313b919081019062005190565b60425460405162d1742360e51b81529192506000916101009091046001600160a01b031690631a2e846090620031779060019060040162003cec565b6000604051808303816000875af115801562003197573d6000803e3d6000fd5b505050506040513d6000823e601f3d908101601f19168201604052620031c1919081019062005190565b905060005b82518110156200320c57620031f7838281518110620031e957620031e962004725565b6020026020010151620024f8565b80620032038162004751565b915050620031c6565b5060005b8151811015620032485762003233828281518110620031e957620031e962004725565b806200323f8162004751565b91505062003210565b5060405130907f13607bf9d2dd20e1f3a7daf47ab12856f8aad65e6ae7e2c75ace3d0c424a40e890600090a25050565b600080604260019054906101000a90046001600160a01b03166001600160a01b031663a24b25f06040518163ffffffff1660e01b81526004016000604051808303816000875af1158015620032d1573d6000803e3d6000fd5b505050506040513d6000823e601f3d908101601f19168201604052620032fb9190810190620046bb565b9150915060005b8251811015620033cc57604c73__$d84a6fe642bab30af710ab25b73b82ca77$__637bdd0ab090918584815181106200333f576200333f62004725565b60200260200101518585815181106200335c576200335c62004725565b60200260200101516040518463ffffffff1660e01b81526004016200338493929190620050d4565b60006040518083038186803b1580156200339d57600080fd5b505af4158015620033b2573d6000803e3d6000fd5b505050508080620033c39062004751565b91505062003302565b505050565b60425460009060ff1615620033e857506001919050565b60005b8251811015620034c857604754604a5484516001600160a01b039092169163f4099811919086908590811062003425576200342562004725565b6020026020010151602001516040518363ffffffff1660e01b8152600401620034619291909182526001600160a01b0316602082015260400190565b602060405180830381865afa1580156200347f573d6000803e3d6000fd5b505050506040513d601f19601f82011682018060405250810190620034a591906200498f565b620034b35750600092915050565b80620034bf8162004751565b915050620033eb565b50506001919050565b60005b83518110156200306757838181518110620034f357620034f362004725565b602002602001015173__$73ba9acb7a266bb144fecabb2d69a75f38$__63e1afb77190916040518263ffffffff1660e01b8152600401620035359190620050f8565b602060405180830381865af415801562003553573d6000803e3d6000fd5b505050506040513d601f19601f820116820180604052508101906200357991906200498f565b806200361b575083818151811062003595576200359562004725565b602002602001015173__$73ba9acb7a266bb144fecabb2d69a75f38$__63ae5c7d2790916040518263ffffffff1660e01b8152600401620035d79190620050f8565b602060405180830381865af4158015620035f5573d6000803e3d6000fd5b505050506040513d601f19601f820116820180604052508101906200361b91906200498f565b1562003783576127106043600201548483815181106200363f576200363f62004725565b602002602001015162003653919062005229565b6200365f919062005243565b82828151811062003674576200367462004725565b60200260200101511015620036c15760405162461bcd60e51b8152602060048201526012602482015271463a204e6f7420656e6f756768206665657360701b6044820152606401620005e2565b838181518110620036d657620036d662004725565b602002602001015173__$73ba9acb7a266bb144fecabb2d69a75f38$__63d90d23e89091604360000160009054906101000a90046001600160a01b031685858151811062003728576200372862004725565b60200260200101516040518463ffffffff1660e01b8152600401620037509392919062004a7a565b60006040518083038186803b1580156200376957600080fd5b505af41580156200377e573d6000803e3d6000fd5b505050505b806200378f8162004751565b915050620034d4565b600054610100900460ff16620023785760405162461bcd60e51b8152600401620005e29062005145565b6108e6806200526783390190565b6001600160a01b0381168114620037e657600080fd5b50565b8035620037f681620037d0565b919050565b6000806000806000608086880312156200381457600080fd5b85356200382181620037d0565b945060208601356200383381620037d0565b93506040860135925060608601356001600160401b03808211156200385757600080fd5b818801915088601f8301126200386c57600080fd5b8135818111156200387c57600080fd5b8960208285010111156200388f57600080fd5b9699959850939650602001949392505050565b600060208284031215620038b557600080fd5b5035919050565b60008083601f840112620038cf57600080fd5b5081356001600160401b03811115620038e757600080fd5b6020830191508360208260051b85010111156200390357600080fd5b9250929050565b8015158114620037e657600080fd5b8035620037f6816200390a565b600080600080600080600080600060a08a8c0312156200394557600080fd5b89356001600160401b03808211156200395d57600080fd5b6200396b8d838e01620038bc565b909b50995060208c01359150808211156200398557600080fd5b620039938d838e01620038bc565b909950975060408c01359150620039aa826200390a565b90955060608b01359080821115620039c157600080fd5b620039cf8d838e01620038bc565b909650945060808c0135915080821115620039e957600080fd5b50620039f88c828d01620038bc565b915080935050809150509295985092959850929598565b634e487b7160e01b600052602160045260246000fd5b60038110620037e657620037e662003a0f565b805162003a458162003a25565b82526020818101516001600160a01b031690830152604090810151910152565b600081518084526020808501945080840160005b8381101562003aa35762003a8f87835162003a38565b606096909601959082019060010162003a79565b509495945050505050565b600081518084526020808501945080840160005b8381101562003aa35781518752958201959082019060010162003ac2565b60408152600062003af5604083018562003a65565b828103602084015262000598818562003aae565b60008060008060006060868803121562003b2257600080fd5b8535945060208601356001600160401b038082111562003b4157600080fd5b62003b4f89838a01620038bc565b9096509450604088013591508082111562003b6957600080fd5b5062003b7888828901620038bc565b969995985093965092949392505050565b60208152600062003b9e602083018462003a65565b9392505050565b60006080828403121562003bb857600080fd5b50919050565b6000806000806000806080878903121562003bd857600080fd5b86356001600160401b038082111562003bf057600080fd5b908801906060828b03121562003c0557600080fd5b9096506020880135908082111562003c1c57600080fd5b62003c2a8a838b0162003ba5565b9650604089013591508082111562003c4157600080fd5b62003c4f8a838b01620038bc565b9096509450606089013591508082111562003c6957600080fd5b5062003c7889828a01620038bc565b979a9699509497509295939492505050565b60008060006040848603121562003ca057600080fd5b8335925060208401356001600160401b0381111562003cbe57600080fd5b62003ccc86828701620038bc565b9497909650939450505050565b60048110620037e657620037e662003a0f565b6020810162003cfb8362003cd9565b91905290565b60008060008060008060008060008060a08b8d03121562003d2157600080fd5b8a356001600160401b038082111562003d3957600080fd5b62003d478e838f01620038bc565b909c509a5060208d013591508082111562003d6157600080fd5b62003d6f8e838f01620038bc565b909a50985060408d013591508082111562003d8957600080fd5b62003d978e838f01620038bc565b909850965060608d013591508082111562003db157600080fd5b62003dbf8e838f01620038bc565b909650945060808d013591508082111562003dd957600080fd5b5062003de88d828e01620038bc565b915080935050809150509295989b9194979a5092959850565b6020808252825182820181905260009190848201906040850190845b8181101562003e3b5783518352928401929184019160010162003e1d565b50909695505050505050565b6000806020838503121562003e5b57600080fd5b82356001600160401b0381111562003e7257600080fd5b62003e8085828601620038bc565b90969095509350505050565b60006101c082019050865182526020870151602083015260408701516040830152606087015160608301526080870151608083015260a087015160a083015260c087015162003edf60c084018262003a38565b5060e0870151151561012083015285610140830152846101608301528361018083015262003f196101a08301846001600160a01b03169052565b9695505050505050565b634e487b7160e01b600052604160045260246000fd5b604051606081016001600160401b038111828210171562003f5e5762003f5e62003f23565b60405290565b60405161010081016001600160401b038111828210171562003f5e5762003f5e62003f23565b604051608081016001600160401b038111828210171562003f5e5762003f5e62003f23565b60405160a081016001600160401b038111828210171562003f5e5762003f5e62003f23565b604051601f8201601f191681016001600160401b038111828210171562003fff5762003fff62003f23565b604052919050565b60038110620037e657600080fd5b6000606082840312156200402857600080fd5b6200403262003f39565b90508135620040418162004007565b815260208201356200405381620037d0565b806020830152506040820135604082015292915050565b600080608083850312156200407e57600080fd5b6200408a848462004015565b946060939093013593505050565b6000806000806000806000806000808a8c036102a0811215620040ba57600080fd5b8b35620040c781620037d0565b9a50610140601f198201811315620040de57600080fd5b620040e862003f64565b915060208d0135825260408d0135602083015260608d0135604083015260808d0135606083015260a08d0135608083015260c08d013560a0830152620041328e60e08f0162004015565b60c083015262004144818e0162003919565b60e08301525098506200415c8c6101608d0162003ba5565b97506200416d6101e08c01620037e9565b96506102008b013595506102208b013594506200418e6102408c01620037e9565b93506102608b01356001600160401b03811115620041ab57600080fd5b620041b98d828e01620038bc565b9094509250620041cf90506102808c01620037e9565b90509295989b9194979a5092959850565b6020808252600e908201526d463a2057726f6e6720537461746560901b604082015260600190565b602080825260129082015271231d1037b7363ca33ab73226b0b730b3b2b960711b604082015260600190565b6020808252601f908201527f5265656e7472616e637947756172643a207265656e7472616e742063616c6c00604082015260600190565b60006001600160401b0382111562004287576200428762003f23565b5060051b60200190565b60006001600160401b03821115620042ad57620042ad62003f23565b50601f01601f191660200190565b600082601f830112620042cd57600080fd5b8135620042e4620042de8262004291565b62003fd4565b818152846020838601011115620042fa57600080fd5b816020850160208301376000918101602001919091529392505050565b6000606082840312156200432a57600080fd5b6200433462003f39565b905081356200434381620037d0565b81526020820135620043558162004007565b602082015260408201356001600160401b038111156200437457600080fd5b6200438284828501620042bb565b60408301525092915050565b60006200439f620042de846200426b565b80848252602080830192508560051b850136811115620043be57600080fd5b855b81811015620043fe5780356001600160401b03811115620043e15760008081fd5b620043ef36828a0162004317565b865250938201938201620043c0565b50919695505050505050565b600082601f8301126200441c57600080fd5b813560206200442f620042de836200426b565b828152606092830285018201928282019190878511156200444f57600080fd5b8387015b85811015620044765762004468898262004015565b845292840192810162004453565b5090979650505050505050565b6000608082840312156200449657600080fd5b620044a062003f8a565b90508135620044af81620037d0565b815260208201356001600160401b0380821115620044cc57600080fd5b620044da85838601620042bb565b60208401526040840135915080821115620044f457600080fd5b62004502858386016200440a565b604084015260608401359150808211156200451c57600080fd5b506200452b848285016200440a565b60608301525092915050565b600062004548620042de846200426b565b80848252602080830192508560051b8501368111156200456757600080fd5b855b81811015620043fe5780356001600160401b038111156200458a5760008081fd5b6200459836828a0162004483565b86525093820193820162004569565b600082601f830112620045b957600080fd5b81516020620045cc620042de836200426b565b82815260609283028501820192828201919087851115620045ec57600080fd5b8387015b85811015620044765781818a0312156200460a5760008081fd5b6200461462003f39565b8151620046218162004007565b8152818601516200463281620037d0565b81870152604082810151908201528452928401928101620045f0565b600082601f8301126200466057600080fd5b8151602062004673620042de836200426b565b82815260059290921b840181019181810190868411156200469357600080fd5b8286015b84811015620046b0578051835291830191830162004697565b509695505050505050565b60008060408385031215620046cf57600080fd5b82516001600160401b0380821115620046e757600080fd5b620046f586838701620045a7565b935060208501519150808211156200470c57600080fd5b506200471b858286016200464e565b9150509250929050565b634e487b7160e01b600052603260045260246000fd5b634e487b7160e01b600052601160045260246000fd5b6000600182016200476657620047666200473b565b5060010190565b60005b838110156200478a57818101518382015260200162004770565b50506000910152565b60008151808452620047ad8160208601602086016200476d565b601f01601f19169290920160200192915050565b60208152600062003b9e602083018462004793565b81835281816020850137506000828201602090810191909152601f909101601f19169091010190565b6000808335601e198436030181126200481757600080fd5b83016020810192503590506001600160401b038111156200483757600080fd5b6060810236038213156200390357600080fd5b8183526000602080850194508260005b8581101562003aa3578135620048708162004007565b6200487b8162003a25565b8752818301356200488c81620037d0565b6001600160a01b03168784015260408281013590880152606096870196909101906001016200485a565b6020815260008235620048c981620037d0565b6001600160a01b031660208381019190915283013536849003601e19018112620048f257600080fd5b83016020810190356001600160401b038111156200490f57600080fd5b8036038213156200491f57600080fd5b608060408501526200493660a085018284620047d6565b915050620049486040850185620047ff565b601f1980868503016060870152620049628483856200484a565b9350620049736060880188620047ff565b93509150808685030160808701525062003f198383836200484a565b600060208284031215620049a257600080fd5b815162003b9e816200390a565b6000808335601e19843603018112620049c757600080fd5b8301803591506001600160401b03821115620049e257600080fd5b6020019150600581901b36038213156200390357600080fd5b60006020828403121562004a0e57600080fd5b813562003b9e816200390a565b60006020828403121562004a2e57600080fd5b813562003b9e81620037d0565b8381526020810183905260a0810162004a58604083018462003a38565b949350505050565b60006020828403121562004a7357600080fd5b5051919050565b60a0810162004a8a828662003a38565b6001600160a01b0393909316606082015260800152919050565b8481526020810184905260c0810162004ac1604083018562003a38565b8260a083015295945050505050565b813562004add81620037d0565b81546001600160a01b0319166001600160a01b03919091161781556020820135600182015560408201356002820155606090910135600390910155565b60006101608201905083825282516020830152602083015160408301526040830151606083015260608301516080830152608083015160a083015260a083015160c083015260c083015162004b7360e084018262003a38565b5060e083015115156101408301529392505050565b600082601f83011262004b9a57600080fd5b815162004bab620042de8262004291565b81815284602083860101111562004bc157600080fd5b62004a588260208301602087016200476d565b600082601f83011262004be657600080fd5b8151602062004bf9620042de836200426b565b82815260059290921b8401810191818101908684111562004c1957600080fd5b8286015b84811015620046b05780516001600160401b038082111562004c3f5760008081fd5b908801906060828b03601f190181131562004c5a5760008081fd5b62004c6462003f39565b8784015162004c7381620037d0565b815260408481015162004c868162004007565b828a015291840151918383111562004c9e5760008081fd5b62004cae8d8a8588010162004b88565b90820152865250505091830191830162004c1d565b600082601f83011262004cd557600080fd5b8151602062004ce8620042de836200426b565b82815260059290921b8401810191818101908684111562004d0857600080fd5b8286015b84811015620046b05780516001600160401b038082111562004d2e5760008081fd5b908801906080828b03601f190181131562004d495760008081fd5b62004d5362003f8a565b8784015162004d6281620037d0565b81526040848101518481111562004d795760008081fd5b62004d898e8b8389010162004b88565b8a840152506060808601518581111562004da35760008081fd5b62004db38f8c838a0101620045a7565b848401525092850151928484111562004dce57600091508182fd5b62004dde8e8b86890101620045a7565b9083015250865250505091830191830162004d0c565b805160048110620037f657600080fd5b60006020828403121562004e1757600080fd5b81516001600160401b038082111562004e2f57600080fd5b9083019060a0828603121562004e4457600080fd5b62004e4e62003faf565b82518281111562004e5e57600080fd5b62004e6c8782860162004bd4565b82525060208301518281111562004e8257600080fd5b62004e908782860162004cc3565b60208301525060408301518281111562004ea957600080fd5b62004eb7878286016200464e565b60408301525062004ecb6060840162004df4565b606082015260808301518281111562004ee357600080fd5b62004ef1878286016200464e565b60808301525095945050505050565b600081518084526020808501945080840160005b8381101562003aa35762004f2a87835162003a38565b606096909601959082019060010162004f14565b600081518084526020808501808196508360051b8101915082860160005b8581101562004fe5578284038952815180516001600160a01b031685528581015160808787018190529062004f948288018262004793565b9150506040808301518783038289015262004fb0838262004f00565b925050506060808301519250868203818801525062004fd0818362004f00565b9a87019a955050509084019060010162004f5c565b5091979650505050505050565b60006040808301818452808651808352606092508286019150828160051b8701016020808a0160005b848110156200507a57898403605f19018652815180516001600160a01b03168552838101516200504b8162003a25565b85850152880151888501889052620050668886018262004793565b96840196945050908201906001016200501b565b5050878203908801526200508f818962004f3e565b9998505050505050505050565b600060208284031215620050af57600080fd5b81516001600160401b03811115620050c657600080fd5b62004a5884828501620045a7565b83815260a08101620050ea602083018562003a38565b826080830152949350505050565b6060810162005108828462003a38565b92915050565b82815260406020820152600062004a58604083018462003aae565b600062005108368362004317565b600062005108368362004483565b6020808252602b908201527f496e697469616c697a61626c653a20636f6e7472616374206973206e6f74206960408201526a6e697469616c697a696e6760a81b606082015260800190565b60006020808385031215620051a457600080fd5b82516001600160401b03811115620051bb57600080fd5b8301601f81018513620051cd57600080fd5b8051620051de620042de826200426b565b81815260059190911b82018301908381019087831115620051fe57600080fd5b928401925b828410156200521e5783518252928401929084019062005203565b979650505050505050565b80820281158282048414176200510857620051086200473b565b6000826200526157634e487b7160e01b600052601260045260246000fd5b50049056fe60806040526040516108e63803806108e68339810160408190526100229161044e565b61002e82826000610035565b5050610578565b61003e83610100565b6040516001600160a01b038416907f1cf3b03a6cf19fa2baba4df148e9dcabedea7f8a5c07840e207e5c089be95d3e90600090a260008251118061007f5750805b156100fb576100f9836001600160a01b0316635c60da1b6040518163ffffffff1660e01b8152600401602060405180830381865afa1580156100c5573d6000803e3d6000fd5b505050506040513d601f19601f820116820180604052508101906100e9919061050e565b836102a360201b6100291760201c565b505b505050565b610113816102cf60201b6100551760201c565b6101725760405162461bcd60e51b815260206004820152602560248201527f455243313936373a206e657720626561636f6e206973206e6f74206120636f6e6044820152641d1c9858dd60da1b60648201526084015b60405180910390fd5b6101e6816001600160a01b0316635c60da1b6040518163ffffffff1660e01b8152600401602060405180830381865afa1580156101b3573d6000803e3d6000fd5b505050506040513d601f19601f820116820180604052508101906101d7919061050e565b6102cf60201b6100551760201c565b61024b5760405162461bcd60e51b815260206004820152603060248201527f455243313936373a20626561636f6e20696d706c656d656e746174696f6e206960448201526f1cc81b9bdd08184818dbdb9d1c9858dd60821b6064820152608401610169565b806102827fa3f0ad74e5423aebfd80d3ef4346578335a9a72aeaee59ff6cb3582b35133d5060001b6102de60201b6100641760201c565b80546001600160a01b0319166001600160a01b039290921691909117905550565b60606102c883836040518060600160405280602781526020016108bf602791396102e1565b9392505050565b6001600160a01b03163b151590565b90565b60606001600160a01b0384163b6103495760405162461bcd60e51b815260206004820152602660248201527f416464726573733a2064656c65676174652063616c6c20746f206e6f6e2d636f6044820152651b9d1c9858dd60d21b6064820152608401610169565b600080856001600160a01b0316856040516103649190610529565b600060405180830381855af49150503d806000811461039f576040519150601f19603f3d011682016040523d82523d6000602084013e6103a4565b606091505b5090925090506103b58282866103bf565b9695505050505050565b606083156103ce5750816102c8565b8251156103de5782518084602001fd5b8160405162461bcd60e51b81526004016101699190610545565b80516001600160a01b038116811461040f57600080fd5b919050565b634e487b7160e01b600052604160045260246000fd5b60005b8381101561044557818101518382015260200161042d565b50506000910152565b6000806040838503121561046157600080fd5b61046a836103f8565b60208401519092506001600160401b038082111561048757600080fd5b818501915085601f83011261049b57600080fd5b8151818111156104ad576104ad610414565b604051601f8201601f19908116603f011681019083821181831017156104d5576104d5610414565b816040528281528860208487010111156104ee57600080fd5b6104ff83602083016020880161042a565b80955050505050509250929050565b60006020828403121561052057600080fd5b6102c8826103f8565b6000825161053b81846020870161042a565b9190910192915050565b602081526000825180602084015261056481604085016020870161042a565b601f01601f19169190910160400192915050565b610338806105876000396000f3fe60806040523661001357610011610017565b005b6100115b610027610022610067565b610100565b565b606061004e83836040518060600160405280602781526020016102dc60279139610124565b9392505050565b6001600160a01b03163b151590565b90565b600061009a7fa3f0ad74e5423aebfd80d3ef4346578335a9a72aeaee59ff6cb3582b35133d50546001600160a01b031690565b6001600160a01b0316635c60da1b6040518163ffffffff1660e01b8152600401602060405180830381865afa1580156100d7573d6000803e3d6000fd5b505050506040513d601f19601f820116820180604052508101906100fb919061023f565b905090565b3660008037600080366000845af43d6000803e80801561011f573d6000f35b3d6000fd5b60606001600160a01b0384163b6101915760405162461bcd60e51b815260206004820152602660248201527f416464726573733a2064656c65676174652063616c6c20746f206e6f6e2d636f6044820152651b9d1c9858dd60d21b60648201526084015b60405180910390fd5b600080856001600160a01b0316856040516101ac919061028c565b600060405180830381855af49150503d80600081146101e7576040519150601f19603f3d011682016040523d82523d6000602084013e6101ec565b606091505b50915091506101fc828286610206565b9695505050505050565b6060831561021557508161004e565b8251156102255782518084602001fd5b8160405162461bcd60e51b815260040161018891906102a8565b60006020828403121561025157600080fd5b81516001600160a01b038116811461004e57600080fd5b60005b8381101561028357818101518382015260200161026b565b50506000910152565b6000825161029e818460208701610268565b9190910192915050565b60208152600082518060208401526102c7816040850160208701610268565b601f01601f1916919091016040019291505056fe416464726573733a206c6f772d6c6576656c2064656c65676174652063616c6c206661696c6564a2646970667358221220850125bf8801321827148766e6775badc079cac2454869093b033a756d8d742564736f6c63430008110033416464726573733a206c6f772d6c6576656c2064656c65676174652063616c6c206661696c6564546869732073746174652073686f756c64206e657665722062652072656163686564a2646970667358221220839128be941af68c43cfab2f226f6a306fa9bb8128775ed87d7b66d61cf6437264736f6c63430008110033",
  "linkReferences": {
    "contracts/utils/assets/AssetTracker.sol": {
      "AssetTracker": [
        {
          "length": 20,
          "start": 11184
        },
        {
          "length": 20,
          "start": 12447
        },
        {
          "length": 20,
          "start": 13316
        }
      ]
    },
    "contracts/utils/assets/TokenLib.sol": {
      "TokenLib": [
        {
          "length": 20,
          "start": 6024
        },
        {
          "length": 20,
          "start": 11310
        },
        {
          "length": 20,
          "start": 11435
        },
        {
          "length": 20,
          "start": 13809
        },
        {
          "length": 20,
          "start": 13971
        },
        {
          "length": 20,
          "start": 14292
        }
      ]
    },
    "contracts/utils/subscriptions/Subscriptions.sol": {
      "Subscriptions": [
        {
          "length": 20,
          "start": 2466
        },
        {
          "length": 20,
          "start": 2636
        },
        {
          "length": 20,
          "start": 5803
        },
        {
          "length": 20,
          "start": 7137
        },
        {
          "length": 20,
          "start": 8211
        },
        {
          "length": 20,
          "start": 8305
        }
      ]
    }
  },
  "deployedLinkReferences": {
    "contracts/utils/assets/AssetTracker.sol": {
      "AssetTracker": [
        {
          "length": 20,
          "start": 10940
        },
        {
          "length": 20,
          "start": 12203
        },
        {
          "length": 20,
          "start": 13072
        }
      ]
    },
    "contracts/utils/assets/TokenLib.sol": {
      "TokenLib": [
        {
          "length": 20,
          "start": 5780
        },
        {
          "length": 20,
          "start": 11066
        },
        {
          "length": 20,
          "start": 11191
        },
        {
          "length": 20,
          "start": 13565
        },
        {
          "length": 20,
          "start": 13727
        },
        {
          "length": 20,
          "start": 14048
        }
      ]
    },
    "contracts/utils/subscriptions/Subscriptions.sol": {
      "Subscriptions": [
        {
          "length": 20,
          "start": 2222
        },
        {
          "length": 20,
          "start": 2392
        },
        {
          "length": 20,
          "start": 5559
        },
        {
          "length": 20,
          "start": 6893
        },
        {
          "length": 20,
          "start": 7967
        },
        {
          "length": 20,
          "start": 8061
        }
      ]
    }
  }
}