{
  "_format": "hh-sol-artifact-1",
  "contractName": "Fund",
  "sourceName": "contracts/funds/Fund.sol",
  "abi": [
    {
      "inputs": [],
      "stateMutability": "nonpayable",
      "type": "constructor"
    },
    {
      "anonymous": false,
      "inputs": [
        {
          "indexed": true,
          "internalType": "address",
          "name": "fundAddr",
          "type": "address"
        }
      ],
      "name": "Closed",
      "type": "event"
    },
    {
      "anonymous": false,
      "inputs": [
        {
          "indexed": false,
          "internalType": "address",
          "name": "subscriber",
          "type": "address"
        },
        {
          "indexed": false,
          "internalType": "address",
          "name": "token",
          "type": "address"
        },
        {
          "indexed": false,
          "internalType": "uint256",
          "name": "balance",
          "type": "uint256"
        }
      ],
      "name": "Deposit",
      "type": "event"
    },
    {
      "anonymous": false,
      "inputs": [
        {
          "indexed": false,
          "internalType": "uint8",
          "name": "version",
          "type": "uint8"
        }
      ],
      "name": "Initialized",
      "type": "event"
    },
    {
      "anonymous": false,
      "inputs": [
        {
          "indexed": false,
          "internalType": "address",
          "name": "subscriber",
          "type": "address"
        },
        {
          "indexed": false,
          "internalType": "address",
          "name": "token",
          "type": "address"
        },
        {
          "indexed": false,
          "internalType": "uint256",
          "name": "balance",
          "type": "uint256"
        }
      ],
      "name": "Withdraw",
      "type": "event"
    },
    {
      "inputs": [
        {
          "internalType": "bytes32",
          "name": "ruleHash",
          "type": "bytes32"
        }
      ],
      "name": "activateRule",
      "outputs": [],
      "stateMutability": "nonpayable",
      "type": "function"
    },
    {
      "inputs": [
        {
          "internalType": "address[]",
          "name": "investors",
          "type": "address[]"
        }
      ],
      "name": "addInvestorToWhitelist",
      "outputs": [],
      "stateMutability": "nonpayable",
      "type": "function"
    },
    {
      "inputs": [
        {
          "internalType": "bytes32",
          "name": "ruleHash",
          "type": "bytes32"
        },
        {
          "internalType": "uint256[]",
          "name": "collaterals",
          "type": "uint256[]"
        },
        {
          "internalType": "uint256[]",
          "name": "fees",
          "type": "uint256[]"
        }
      ],
      "name": "addRuleCollateral",
      "outputs": [],
      "stateMutability": "nonpayable",
      "type": "function"
    },
    {
      "inputs": [
        {
          "internalType": "bytes32",
          "name": "ruleHash",
          "type": "bytes32"
        }
      ],
      "name": "cancelRule",
      "outputs": [],
      "stateMutability": "nonpayable",
      "type": "function"
    },
    {
      "inputs": [],
      "name": "closeFund",
      "outputs": [],
      "stateMutability": "nonpayable",
      "type": "function"
    },
    {
      "inputs": [
        {
          "components": [
            {
              "internalType": "address",
              "name": "callee",
              "type": "address"
            },
            {
              "internalType": "enum TriggerType",
              "name": "triggerType",
              "type": "uint8"
            },
            {
              "internalType": "bytes",
              "name": "createTimeParams",
              "type": "bytes"
            }
          ],
          "internalType": "struct Trigger[]",
          "name": "triggers",
          "type": "tuple[]"
        },
        {
          "components": [
            {
              "internalType": "address",
              "name": "callee",
              "type": "address"
            },
            {
              "internalType": "bytes",
              "name": "data",
              "type": "bytes"
            },
            {
              "components": [
                {
                  "internalType": "enum TokenType",
                  "name": "t",
                  "type": "uint8"
                },
                {
                  "internalType": "address",
                  "name": "addr",
                  "type": "address"
                },
                {
                  "internalType": "uint256",
                  "name": "id",
                  "type": "uint256"
                }
              ],
              "internalType": "struct Token[]",
              "name": "inputTokens",
              "type": "tuple[]"
            },
            {
              "components": [
                {
                  "internalType": "enum TokenType",
                  "name": "t",
                  "type": "uint8"
                },
                {
                  "internalType": "address",
                  "name": "addr",
                  "type": "address"
                },
                {
                  "internalType": "uint256",
                  "name": "id",
                  "type": "uint256"
                }
              ],
              "internalType": "struct Token[]",
              "name": "outputTokens",
              "type": "tuple[]"
            }
          ],
          "internalType": "struct Action[]",
          "name": "actions",
          "type": "tuple[]"
        }
      ],
      "name": "createRule",
      "outputs": [
        {
          "internalType": "bytes32",
          "name": "",
          "type": "bytes32"
        }
      ],
      "stateMutability": "nonpayable",
      "type": "function"
    },
    {
      "inputs": [
        {
          "internalType": "bytes32",
          "name": "ruleHash",
          "type": "bytes32"
        }
      ],
      "name": "deactivateRule",
      "outputs": [],
      "stateMutability": "nonpayable",
      "type": "function"
    },
    {
      "inputs": [],
      "name": "degenMode",
      "outputs": [
        {
          "internalType": "bool",
          "name": "",
          "type": "bool"
        }
      ],
      "stateMutability": "view",
      "type": "function"
    },
    {
      "inputs": [
        {
          "components": [
            {
              "internalType": "enum TokenType",
              "name": "t",
              "type": "uint8"
            },
            {
              "internalType": "address",
              "name": "addr",
              "type": "address"
            },
            {
              "internalType": "uint256",
              "name": "id",
              "type": "uint256"
            }
          ],
          "internalType": "struct Token",
          "name": "collateralToken",
          "type": "tuple"
        },
        {
          "internalType": "uint256",
          "name": "amountSent",
          "type": "uint256"
        }
      ],
      "name": "deposit",
      "outputs": [],
      "stateMutability": "payable",
      "type": "function"
    },
    {
      "inputs": [],
      "name": "getInputTokens",
      "outputs": [
        {
          "components": [
            {
              "internalType": "enum TokenType",
              "name": "t",
              "type": "uint8"
            },
            {
              "internalType": "address",
              "name": "addr",
              "type": "address"
            },
            {
              "internalType": "uint256",
              "name": "id",
              "type": "uint256"
            }
          ],
          "internalType": "struct Token[]",
          "name": "",
          "type": "tuple[]"
        }
      ],
      "stateMutability": "pure",
      "type": "function"
    },
    {
      "inputs": [],
      "name": "getOutputTokens",
      "outputs": [
        {
          "components": [
            {
              "internalType": "enum TokenType",
              "name": "t",
              "type": "uint8"
            },
            {
              "internalType": "address",
              "name": "addr",
              "type": "address"
            },
            {
              "internalType": "uint256",
              "name": "id",
              "type": "uint256"
            }
          ],
          "internalType": "struct Token[]",
          "name": "",
          "type": "tuple[]"
        }
      ],
      "stateMutability": "pure",
      "type": "function"
    },
    {
      "inputs": [],
      "name": "getStatus",
      "outputs": [
        {
          "internalType": "enum FundStatus",
          "name": "",
          "type": "uint8"
        }
      ],
      "stateMutability": "view",
      "type": "function"
    },
    {
      "inputs": [
        {
          "internalType": "address",
          "name": "_manager",
          "type": "address"
        },
        {
          "components": [
            {
              "internalType": "uint256",
              "name": "minCollateralPerSub",
              "type": "uint256"
            },
            {
              "internalType": "uint256",
              "name": "maxCollateralPerSub",
              "type": "uint256"
            },
            {
              "internalType": "uint256",
              "name": "minCollateralTotal",
              "type": "uint256"
            },
            {
              "internalType": "uint256",
              "name": "maxCollateralTotal",
              "type": "uint256"
            },
            {
              "internalType": "uint256",
              "name": "deadline",
              "type": "uint256"
            },
            {
              "internalType": "uint256",
              "name": "lockin",
              "type": "uint256"
            },
            {
              "components": [
                {
                  "internalType": "enum TokenType",
                  "name": "t",
                  "type": "uint8"
                },
                {
                  "internalType": "address",
                  "name": "addr",
                  "type": "address"
                },
                {
                  "internalType": "uint256",
                  "name": "id",
                  "type": "uint256"
                }
              ],
              "internalType": "struct Token",
              "name": "allowedDepositToken",
              "type": "tuple"
            },
            {
              "internalType": "bool",
              "name": "onlyWhitelistedInvestors",
              "type": "bool"
            }
          ],
          "internalType": "struct Subscriptions.Constraints",
          "name": "_constraints",
          "type": "tuple"
        },
        {
          "components": [
            {
              "internalType": "address",
              "name": "platformFeeWallet",
              "type": "address"
            },
            {
              "internalType": "uint256",
              "name": "subscriberToPlatformFeePercentage",
              "type": "uint256"
            },
            {
              "internalType": "uint256",
              "name": "managerToPlatformFeePercentage",
              "type": "uint256"
            },
            {
              "internalType": "uint256",
              "name": "subscriberToManagerFeePercentage",
              "type": "uint256"
            }
          ],
          "internalType": "struct FeeParams",
          "name": "_feeParams",
          "type": "tuple"
        },
        {
          "internalType": "address",
          "name": "_wlServiceAddr",
          "type": "address"
        },
        {
          "internalType": "bytes32",
          "name": "_triggerWhitelistHash",
          "type": "bytes32"
        },
        {
          "internalType": "bytes32",
          "name": "_actionWhitelistHash",
          "type": "bytes32"
        },
        {
          "internalType": "address",
          "name": "roboCopBeaconAddr",
          "type": "address"
        },
        {
          "internalType": "address[]",
          "name": "_declaredTokenAddrs",
          "type": "address[]"
        },
        {
          "internalType": "address",
          "name": "botFrontendAddr",
          "type": "address"
        }
      ],
      "name": "initialize",
      "outputs": [],
      "stateMutability": "nonpayable",
      "type": "function"
    },
    {
      "inputs": [
        {
          "internalType": "address",
          "name": "",
          "type": "address"
        },
        {
          "internalType": "address",
          "name": "",
          "type": "address"
        },
        {
          "internalType": "uint256",
          "name": "",
          "type": "uint256"
        },
        {
          "internalType": "bytes",
          "name": "",
          "type": "bytes"
        }
      ],
      "name": "onERC721Received",
      "outputs": [
        {
          "internalType": "bytes4",
          "name": "",
          "type": "bytes4"
        }
      ],
      "stateMutability": "pure",
      "type": "function"
    },
    {
      "inputs": [],
      "name": "redeemRuleOutputs",
      "outputs": [],
      "stateMutability": "nonpayable",
      "type": "function"
    },
    {
      "inputs": [
        {
          "internalType": "bytes32",
          "name": "ruleHash",
          "type": "bytes32"
        },
        {
          "internalType": "uint256[]",
          "name": "collaterals",
          "type": "uint256[]"
        }
      ],
      "name": "reduceRuleCollateral",
      "outputs": [],
      "stateMutability": "nonpayable",
      "type": "function"
    },
    {
      "inputs": [],
      "name": "roboCop",
      "outputs": [
        {
          "internalType": "contract IRoboCop",
          "name": "",
          "type": "address"
        }
      ],
      "stateMutability": "view",
      "type": "function"
    },
    {
      "inputs": [],
      "name": "subStuff",
      "outputs": [
        {
          "components": [
            {
              "internalType": "uint256",
              "name": "minCollateralPerSub",
              "type": "uint256"
            },
            {
              "internalType": "uint256",
              "name": "maxCollateralPerSub",
              "type": "uint256"
            },
            {
              "internalType": "uint256",
              "name": "minCollateralTotal",
              "type": "uint256"
            },
            {
              "internalType": "uint256",
              "name": "maxCollateralTotal",
              "type": "uint256"
            },
            {
              "internalType": "uint256",
              "name": "deadline",
              "type": "uint256"
            },
            {
              "internalType": "uint256",
              "name": "lockin",
              "type": "uint256"
            },
            {
              "components": [
                {
                  "internalType": "enum TokenType",
                  "name": "t",
                  "type": "uint8"
                },
                {
                  "internalType": "address",
                  "name": "addr",
                  "type": "address"
                },
                {
                  "internalType": "uint256",
                  "name": "id",
                  "type": "uint256"
                }
              ],
              "internalType": "struct Token",
              "name": "allowedDepositToken",
              "type": "tuple"
            },
            {
              "internalType": "bool",
              "name": "onlyWhitelistedInvestors",
              "type": "bool"
            }
          ],
          "internalType": "struct Subscriptions.Constraints",
          "name": "constraints",
          "type": "tuple"
        },
        {
          "internalType": "uint256",
          "name": "totalCollateral",
          "type": "uint256"
        },
        {
          "internalType": "uint256",
          "name": "subscriberToManagerFeePercentage",
          "type": "uint256"
        },
        {
          "internalType": "uint256",
          "name": "subscriberToPlatformFeePercentage",
          "type": "uint256"
        },
        {
          "internalType": "address",
          "name": "platformFeeWallet",
          "type": "address"
        }
      ],
      "stateMutability": "view",
      "type": "function"
    },
    {
      "inputs": [
        {
          "components": [
            {
              "internalType": "address",
              "name": "callee",
              "type": "address"
            },
            {
              "internalType": "enum TriggerType",
              "name": "triggerType",
              "type": "uint8"
            },
            {
              "internalType": "bytes",
              "name": "createTimeParams",
              "type": "bytes"
            }
          ],
          "internalType": "struct Trigger",
          "name": "trigger",
          "type": "tuple"
        },
        {
          "components": [
            {
              "internalType": "address",
              "name": "callee",
              "type": "address"
            },
            {
              "internalType": "bytes",
              "name": "data",
              "type": "bytes"
            },
            {
              "components": [
                {
                  "internalType": "enum TokenType",
                  "name": "t",
                  "type": "uint8"
                },
                {
                  "internalType": "address",
                  "name": "addr",
                  "type": "address"
                },
                {
                  "internalType": "uint256",
                  "name": "id",
                  "type": "uint256"
                }
              ],
              "internalType": "struct Token[]",
              "name": "inputTokens",
              "type": "tuple[]"
            },
            {
              "components": [
                {
                  "internalType": "enum TokenType",
                  "name": "t",
                  "type": "uint8"
                },
                {
                  "internalType": "address",
                  "name": "addr",
                  "type": "address"
                },
                {
                  "internalType": "uint256",
                  "name": "id",
                  "type": "uint256"
                }
              ],
              "internalType": "struct Token[]",
              "name": "outputTokens",
              "type": "tuple[]"
            }
          ],
          "internalType": "struct Action",
          "name": "action",
          "type": "tuple"
        },
        {
          "internalType": "uint256[]",
          "name": "collaterals",
          "type": "uint256[]"
        },
        {
          "internalType": "uint256[]",
          "name": "fees",
          "type": "uint256[]"
        }
      ],
      "name": "takeAction",
      "outputs": [],
      "stateMutability": "nonpayable",
      "type": "function"
    },
    {
      "inputs": [
        {
          "components": [
            {
              "internalType": "address",
              "name": "callee",
              "type": "address"
            },
            {
              "internalType": "enum TriggerType",
              "name": "triggerType",
              "type": "uint8"
            },
            {
              "internalType": "bytes",
              "name": "createTimeParams",
              "type": "bytes"
            }
          ],
          "internalType": "struct Trigger",
          "name": "trigger",
          "type": "tuple"
        },
        {
          "components": [
            {
              "internalType": "address",
              "name": "callee",
              "type": "address"
            },
            {
              "internalType": "bytes",
              "name": "data",
              "type": "bytes"
            },
            {
              "components": [
                {
                  "internalType": "enum TokenType",
                  "name": "t",
                  "type": "uint8"
                },
                {
                  "internalType": "address",
                  "name": "addr",
                  "type": "address"
                },
                {
                  "internalType": "uint256",
                  "name": "id",
                  "type": "uint256"
                }
              ],
              "internalType": "struct Token[]",
              "name": "inputTokens",
              "type": "tuple[]"
            },
            {
              "components": [
                {
                  "internalType": "enum TokenType",
                  "name": "t",
                  "type": "uint8"
                },
                {
                  "internalType": "address",
                  "name": "addr",
                  "type": "address"
                },
                {
                  "internalType": "uint256",
                  "name": "id",
                  "type": "uint256"
                }
              ],
              "internalType": "struct Token[]",
              "name": "outputTokens",
              "type": "tuple[]"
            }
          ],
          "internalType": "struct Action",
          "name": "action",
          "type": "tuple"
        },
        {
          "internalType": "uint256[]",
          "name": "collaterals",
          "type": "uint256[]"
        },
        {
          "internalType": "uint256[]",
          "name": "fees",
          "type": "uint256[]"
        }
      ],
      "name": "takeActionToClosePosition",
      "outputs": [],
      "stateMutability": "nonpayable",
      "type": "function"
    },
    {
      "inputs": [],
      "name": "withdraw",
      "outputs": [
        {
          "components": [
            {
              "internalType": "enum TokenType",
              "name": "t",
              "type": "uint8"
            },
            {
              "internalType": "address",
              "name": "addr",
              "type": "address"
            },
            {
              "internalType": "uint256",
              "name": "id",
              "type": "uint256"
            }
          ],
          "internalType": "struct Token[]",
          "name": "tokens",
          "type": "tuple[]"
        },
        {
          "internalType": "uint256[]",
          "name": "balances",
          "type": "uint256[]"
        }
      ],
      "stateMutability": "nonpayable",
      "type": "function"
    },
    {
      "inputs": [],
      "name": "withdrawManagementFee",
      "outputs": [
        {
          "components": [
            {
              "internalType": "enum TokenType",
              "name": "t",
              "type": "uint8"
            },
            {
              "internalType": "address",
              "name": "addr",
              "type": "address"
            },
            {
              "internalType": "uint256",
              "name": "id",
              "type": "uint256"
            }
          ],
          "internalType": "struct Token[]",
          "name": "",
          "type": "tuple[]"
        },
        {
          "internalType": "uint256[]",
          "name": "",
          "type": "uint256[]"
        }
      ],
      "stateMutability": "nonpayable",
      "type": "function"
    },
    {
      "inputs": [],
      "name": "wlService",
      "outputs": [
        {
          "internalType": "contract WhitelistService",
          "name": "",
          "type": "address"
        }
      ],
      "stateMutability": "view",
      "type": "function"
    },
    {
      "stateMutability": "payable",
      "type": "receive"
    }
  ],
  "bytecode": "0x60806040523480156200001157600080fd5b506200001c62000022565b620000e4565b600054610100900460ff16156200008f5760405162461bcd60e51b815260206004820152602760248201527f496e697469616c697a61626c653a20636f6e747261637420697320696e697469604482015266616c697a696e6760c81b606482015260840160405180910390fd5b60005460ff9081161015620000e2576000805460ff191660ff9081179091556040519081527f7f26b83ff96e1f2b6a682f133852f6798a09c465da95921460cefb38474024989060200160405180910390a15b565b61552080620000f46000396000f3fe6080604052600436106200015f5760003560e01c806379150b7c11620000c5578063db11e4721162000078578063db11e4721462000423578063df1a701c146200043b578063e3a1c6fe1462000468578063eab4ebd51462000480578063eb9d4c3514620004a7578063fff8c14c14620004bf57600080fd5b806379150b7c14620003375780637ff62512146200035c57806381be916014620003875780638b5eea0d14620003ac5780638ddceb3914620003c35780638f503cc714620003fe57600080fd5b8063454dcb45116200011e578063454dcb45146200026257806347a1a5001462000289578063496148ef14620002ae5780634e69d56014620002d357806370b36bcd14620002fa578063721c8da9146200031f57600080fd5b8063150b7a02146200016c5780632499403814620001ba5780632e84a91914620001e15780633ccfd60b146200021557806344dfed33146200023d57600080fd5b366200016757005b600080fd5b3480156200017957600080fd5b506200019c6200018b3660046200336e565b630a85bd0160e11b95945050505050565b6040516001600160e01b031990911681526020015b60405180910390f35b348015620001c757600080fd5b50620001df620001d936600462003415565b620004e4565b005b348015620001ee57600080fd5b5062000206620002003660046200347d565b62000583565b604051908152602001620001b1565b3480156200022257600080fd5b506200022d62000638565b604051620001b1929190620035c0565b3480156200024a57600080fd5b50620001df6200025c366004620035f2565b62000a33565b3480156200026f57600080fd5b506200027a62000ad1565b604051620001b1919062003672565b3480156200029657600080fd5b50620001df620002a8366004620036a0565b62000b09565b348015620002bb57600080fd5b50620001df620002cd3660046200376c565b62000c25565b348015620002e057600080fd5b50620002eb62000cf4565b604051620001b19190620037ce565b3480156200030757600080fd5b50620001df62000319366004620037e3565b62000dc9565b3480156200032c57600080fd5b506200022d62000faf565b3480156200034457600080fd5b50620001df62000356366004620036a0565b62001358565b3480156200036957600080fd5b5062000374620013db565b604051620001b195949392919062003828565b3480156200039457600080fd5b50620001df620003a636600462003415565b620014b9565b620001df620003bd36600462003a06565b6200159d565b348015620003d057600080fd5b50604754620003e5906001600160a01b031681565b6040516001600160a01b039091168152602001620001b1565b3480156200040b57600080fd5b50620001df6200041d36600462003a50565b620017c6565b3480156200043057600080fd5b506200027a62001d59565b3480156200044857600080fd5b50604254620004579060ff1681565b6040519015158152602001620001b1565b3480156200047557600080fd5b50620001df62001df8565b3480156200048d57600080fd5b50604254620003e59061010090046001600160a01b031681565b348015620004b457600080fd5b50620001df62001f6a565b348015620004cc57600080fd5b50620001df620004de36600462003415565b62001ffe565b600180620004f162000cf4565b6003811115620005055762000505620034ef565b146200052e5760405162461bcd60e51b8152600401620005259062003b98565b60405180910390fd5b6033546001600160a01b031633146200054657600080fd5b6002600154036200056b5760405162461bcd60e51b8152600401620005259062003bb4565b60026001556200057b82620020ba565b505060018055565b6000600260015403620005aa5760405162461bcd60e51b8152600401620005259062003bb4565b6002600190815580620005bc62000cf4565b6003811115620005d057620005d0620034ef565b14620005f05760405162461bcd60e51b8152600401620005259062003b98565b6033546001600160a01b031633146200060857600080fd5b6200062a62000618868862003d0e565b62000624858762003eb7565b620021d0565b600180559695505050505050565b606080600260015403620006605760405162461bcd60e51b8152600401620005259062003bb4565b6002600155336000908152603d602052604090205415801590620006ac5750336000908152603d6020526040812060019081015460ff1690811115620006aa57620006aa620034ef565b145b620006e05760405162461bcd60e51b815260206004820152600360248201526221415360e81b604482015260640162000525565b6000620006ec62000cf4565b90506002816003811115620007055762000705620034ef565b03620007395760405162461bcd60e51b8152602060048201526002602482015261214360f01b604482015260640162000525565b6000816003811115620007505762000750620034ef565b036200084757336000818152603d602090815260409182902054825193845273eeeeeeeeeeeeeeeeeeeeeeeeeeeeeeeeeeeeeeee9184019190915282820152517f9b1bfa7fa9ee420a16e124f794c35ac9f90472acc99140eb2f6447c714cad8eb9181900360600190a16040516309cb21db60e11b815260346004820152604a602482015273__$1e8b217276a9688518c4b39ef4c03aba93$__9063139643b690604401600060405180830381865af415801562000812573d6000803e3d6000fd5b505050506040513d6000823e601f3d908101601f191682016040526200083c91908101906200403b565b909350915062000a2a565b60038160038111156200085e576200085e620034ef565b03620009ab5760405163422806e760e01b815260346004820152604a602482015273__$1e8b217276a9688518c4b39ef4c03aba93$__9063422806e790604401600060405180830381865af4158015620008bc573d6000803e3d6000fd5b505050506040513d6000823e601f3d908101601f19168201604052620008e691908101906200403b565b909350915060005b8351811015620009a4577f9b1bfa7fa9ee420a16e124f794c35ac9f90472acc99140eb2f6447c714cad8eb338583815181106200092f576200092f620040a5565b602002602001015160200151858481518110620009505762000950620040a5565b602002602001015160405162000987939291906001600160a01b039384168152919092166020820152604081019190915260600190565b60405180910390a1806200099b81620040d1565b915050620008ee565b5062000a2a565b6001816003811115620009c257620009c2620034ef565b03620009f55760405162461bcd60e51b81526020600482015260016024820152601160fa1b604482015260640162000525565b604051806060016040528060228152602001620054c96022913960405162461bcd60e51b815260040162000525919062004141565b50600180559091565b60018062000a4062000cf4565b600381111562000a545762000a54620034ef565b1462000a745760405162461bcd60e51b8152600401620005259062003b98565b6033546001600160a01b0316331462000a8c57600080fd5b60026001540362000ab15760405162461bcd60e51b8152600401620005259062003bb4565b600260015562000ac58686868686620024ec565b50506001805550505050565b60405162461bcd60e51b8152602060048201526009602482015268155b9919599a5b995960ba1b604482015260609060640162000525565b60026001540362000b2e5760405162461bcd60e51b8152600401620005259062003bb4565b600260019081558062000b4062000cf4565b600381111562000b545762000b54620034ef565b1462000b745760405162461bcd60e51b8152600401620005259062003b98565b60395442101562000b8457600080fd5b60425460405163437b188160e01b81526101009091046001600160a01b03169063437b18819062000bba90899060040162004236565b602060405180830381865afa15801562000bd8573d6000803e3d6000fd5b505050506040513d601f19601f8201168201806040525081019062000bfe91906200430f565b62000c0857600080fd5b62000c18878787878787620027e4565b5050600180555050505050565b60018062000c3262000cf4565b600381111562000c465762000c46620034ef565b1462000c665760405162461bcd60e51b8152600401620005259062003b98565b6033546001600160a01b0316331462000c7e57600080fd5b60026001540362000ca35760405162461bcd60e51b8152600401620005259062003bb4565b600260018190555062000cea84848480806020026020016040519081016040528093929190818152602001838360200280828437600092019190915250620029e692505050565b5050600180555050565b604c5460009060ff161562000d095750600390565b60385442101562000d1a5750600090565b603654603e54101562000d2d5750600290565b60395442101562000d3e5750600190565b604260019054906101000a90046001600160a01b03166001600160a01b031663aea577686040518163ffffffff1660e01b8152600401602060405180830381865afa15801562000d92573d6000803e3d6000fd5b505050506040513d601f19601f8201168201806040525081019062000db891906200430f565b62000dc35750600290565b50600190565b6033546001600160a01b0316331462000de157600080fd5b60008062000dee62000cf4565b600381111562000e025762000e02620034ef565b1462000e225760405162461bcd60e51b8152600401620005259062003b98565b60026001540362000e475760405162461bcd60e51b8152600401620005259062003bb4565b60026001556047546040805180820182526009815268696e766573746f727360b81b602082015290516353c5df7360e11b81526000926001600160a01b03169163a78bbee69162000e9d9130916004016200432f565b602060405180830381865afa15801562000ebb573d6000803e3d6000fd5b505050506040513d601f19601f8201168201806040525081019062000ee191906200435d565b905060005b8381101562000fa4576047546001600160a01b031663fd5862a48387878581811062000f165762000f16620040a5565b905060200201602081019062000f2d919062004377565b6040516001600160e01b031960e085901b16815260048101929092526001600160a01b03166024820152604401600060405180830381600087803b15801562000f7557600080fd5b505af115801562000f8a573d6000803e3d6000fd5b50505050808062000f9b90620040d1565b91505062000ee6565b505060018055505050565b60335460609081906001600160a01b0316331462000fcc57600080fd5b60038062000fd962000cf4565b600381111562000fed5762000fed620034ef565b146200100d5760405162461bcd60e51b8152600401620005259062003b98565b600260015403620010325760405162461bcd60e51b8152600401620005259062003bb4565b6002600155604a546000906001600160401b03811115620010575762001057620038bf565b604051908082528060200260200182016040528015620010a457816020015b6040805160608101825260008082526020808301829052928201528252600019909201910181620010765790505b50604a549091506000906001600160401b03811115620010c857620010c8620038bf565b604051908082528060200260200182016040528015620010f2578160200160208202803683370190505b50905060005b604a548110156200134957604a8054829081106200111a576200111a620040a5565b90600052602060002090600202016040518060600160405290816000820160009054906101000a900460ff1660028111156200115a576200115a620034ef565b60028111156200116e576200116e620034ef565b8152815461010090046001600160a01b031660208201526001909101546040909101528351849083908110620011a857620011a8620040a5565b6020026020010181905250603473__$1e8b217276a9688518c4b39ef4c03aba93$__639643c2719091604a868581518110620011e857620011e8620040a5565b60200260200101516040518463ffffffff1660e01b8152600401620012109392919062004397565b602060405180830381865af41580156200122e573d6000803e3d6000fd5b505050506040513d601f19601f820116820180604052508101906200125491906200435d565b828281518110620012695762001269620040a5565b6020026020010181815250508281815181106200128a576200128a620040a5565b602002602001015173__$73ba9acb7a266bb144fecabb2d69a75f38$__63d90d23e89091603360009054906101000a90046001600160a01b0316858581518110620012d957620012d9620040a5565b60200260200101516040518463ffffffff1660e01b81526004016200130193929190620043b4565b60006040518083038186803b1580156200131a57600080fd5b505af41580156200132f573d6000803e3d6000fd5b5050505080806200134090620040d1565b915050620010f8565b50909350915050600180559091565b6002600154036200137d5760405162461bcd60e51b8152600401620005259062003bb4565b60026001908155806200138f62000cf4565b6003811115620013a357620013a3620034ef565b14620013c35760405162461bcd60e51b8152600401620005259062003b98565b6033546001600160a01b0316331462000c0857600080fd5b6040805161010081018252603480548252603554602083015260365482840152603754606080840191909152603854608084015260395460a08401528351908101909352603a80549193849260c085019290829060ff166002811115620014465762001446620034ef565b60028111156200145a576200145a620034ef565b815281546001600160a01b0361010090910481166020808401919091526001909301546040909201919091529183526008939093015460ff1615159190920152600a830154600b840154600c850154600d909501549394919390921685565b600180620014c662000cf4565b6003811115620014da57620014da620034ef565b14620014fa5760405162461bcd60e51b8152600401620005259062003b98565b6033546001600160a01b031633146200151257600080fd5b600260015403620015375760405162461bcd60e51b8152600401620005259062003bb4565b600260015560425460405163040df48b60e51b8152600481018490526101009091046001600160a01b0316906381be9160906024015b600060405180830381600087803b1580156200158857600080fd5b505af115801562000ac5573d6000803e3d6000fd5b600080620015aa62000cf4565b6003811115620015be57620015be620034ef565b14620015de5760405162461bcd60e51b8152600401620005259062003b98565b603c5460ff161580620016f257506047546040805180820182526009815268696e766573746f727360b81b602082015290516353c5df7360e11b81526001600160a01b039092169163f409981191839163a78bbee69162001645913091906004016200432f565b602060405180830381865afa15801562001663573d6000803e3d6000fd5b505050506040513d601f19601f820116820180604052508101906200168991906200435d565b6040516001600160e01b031960e084901b1681526004810191909152336024820152604401602060405180830381865afa158015620016cc573d6000803e3d6000fd5b505050506040513d601f19601f82011682018060405250810190620016f291906200430f565b620016fc57600080fd5b60405163ead640b960e01b815273__$1e8b217276a9688518c4b39ef4c03aba93$__9063ead640b9906200173d90603490604a9088908890600401620043de565b60006040518083038186803b1580156200175657600080fd5b505af41580156200176b573d6000803e3d6000fd5b505050602080850151604080513381526001600160a01b03909216928201929092529081018490527f5548c837ab068cf56a2c2479df0882a4922fd203edb7517321831d95078c5f62915060600160405180910390a1505050565b600260015403620017eb5760405162461bcd60e51b8152600401620005259062003bb4565b6002600155600054610100900460ff1615808015620018115750600054600160ff909116105b806200182d5750303b1580156200182d575060005460ff166001145b620018925760405162461bcd60e51b815260206004820152602e60248201527f496e697469616c697a61626c653a20636f6e747261637420697320616c72656160448201526d191e481a5b9a5d1a585b1a5e995960921b606482015260840162000525565b6000805460ff191660011790558015620018b6576000805461ff0019166101001790555b620018c062002ba1565b603380546001600160a01b0319166001600160a01b038d16179055604051633bc8380f60e11b815273__$1e8b217276a9688518c4b39ef4c03aba93$__90637790701e9062001917906034908e906004016200440a565b60006040518083038186803b1580156200193057600080fd5b505af415801562001945573d6000803e3d6000fd5b5073__$1e8b217276a9688518c4b39ef4c03aba93$__925063617fbbf791506034905060608c013560208d0180359062001980908f62004377565b6040516001600160e01b031960e087901b1681526004810194909452602484019290925260448301526001600160a01b0316606482015260840160006040518083038186803b158015620019d357600080fd5b505af4158015620019e8573d6000803e3d6000fd5b505050508860438181620019fd919062004478565b5050600083900362001a1c576042805460ff1916600117905562001b75565b6047546040805180820182526006815265746f6b656e7360d01b60208201529051633bf388a360e11b81526000926001600160a01b0316916377e711469162001a69919060040162004141565b6020604051808303816000875af115801562001a89573d6000803e3d6000fd5b505050506040513d601f19601f8201168201806040525081019062001aaf91906200435d565b905060005b8481101562001b72576047546001600160a01b031663fd5862a48388888581811062001ae45762001ae4620040a5565b905060200201602081019062001afb919062004377565b6040516001600160e01b031960e085901b16815260048101929092526001600160a01b03166024820152604401600060405180830381600087803b15801562001b4357600080fd5b505af115801562001b58573d6000803e3d6000fd5b50505050808062001b6990620040d1565b91505062001ab4565b50505b8960e001511562001c16576047546040805180820182526009815268696e766573746f727360b81b60208201529051633bf388a360e11b81526001600160a01b03909216916377e711469162001bce9160040162004141565b6020604051808303816000875af115801562001bee573d6000803e3d6000fd5b505050506040513d601f19601f8201168201806040525081019062001c1491906200435d565b505b604780546001600160a01b0319166001600160a01b038a16179055604887905560498690556040516060908690829062001c509062003335565b62001c5d9291906200432f565b604051809103906000f08015801562001c7a573d6000803e3d6000fd5b5060428054610100600160a81b0319166101006001600160a01b039384168102919091179182905560405163485cc95560e01b8152306004820152868416602482015291049091169063485cc95590604401600060405180830381600087803b15801562001ce757600080fd5b505af115801562001cfc573d6000803e3d6000fd5b5050505050801562001d48576000805461ff0019169055604051600181527f7f26b83ff96e1f2b6a682f133852f6798a09c465da95921460cefb38474024989060200160405180910390a15b505060018055505050505050505050565b60408051600180825281830190925260609160009190816020015b604080516060810182526000808252602080830182905292820152825260001990920191018162001d7457505060408051606081018252600080825273eeeeeeeeeeeeeeeeeeeeeeeeeeeeeeeeeeeeeeee602083015291810182905282519293509183919062001de85762001de8620040a5565b6020908102919091010152919050565b60026001540362001e1d5760405162461bcd60e51b8152600401620005259062003bb4565b6002600181905550604260019054906101000a90046001600160a01b03166001600160a01b031663aea577686040518163ffffffff1660e01b8152600401602060405180830381865afa15801562001e79573d6000803e3d6000fd5b505050506040513d601f19601f8201168201806040525081019062001e9f91906200430f565b1562001ed35760405162461bcd60e51b8152602060048201526002602482015261050560f41b604482015260640162000525565b600262001edf62000cf4565b600381111562001ef35762001ef3620034ef565b0362001f1257603654603e54101562001f0c576000603f555b62001f5a565b6033546001600160a01b0316331462001f545760405162461bcd60e51b81526020600482015260036024820152624f464d60e81b604482015260640162000525565b6000603f555b62001f6462002bd7565b60018055565b60018062001f7762000cf4565b600381111562001f8b5762001f8b620034ef565b1462001fab5760405162461bcd60e51b8152600401620005259062003b98565b6033546001600160a01b0316331462001fc357600080fd5b60026001540362001fe85760405162461bcd60e51b8152600401620005259062003bb4565b600260015562001ff762002dac565b5060018055565b6001806200200b62000cf4565b60038111156200201f576200201f620034ef565b146200203f5760405162461bcd60e51b8152600401620005259062003b98565b6033546001600160a01b031633146200205757600080fd5b6002600154036200207c5760405162461bcd60e51b8152600401620005259062003bb4565b600260015560425460405160016201cfad60e21b03198152600481018490526101009091046001600160a01b03169063fff8c14c906024016200156d565b60425460405163f7cab84760e01b81526004810183905260009161010090046001600160a01b03169063f7cab84790602401600060405180830381865afa1580156200210a573d6000803e3d6000fd5b505050506040513d6000823e601f3d908101601f191682016040526200213491908101906200473e565b9050600181606001516003811115620021515762002151620034ef565b14620021bc5760425460405163040df48b60e51b8152600481018490526101009091046001600160a01b0316906381be916090602401600060405180830381600087803b158015620021a257600080fd5b505af1158015620021b7573d6000803e3d6000fd5b505050505b620021cc828260400151620029e6565b5050565b6000805b8351811015620022da5760475460485485516001600160a01b039092169163f409981191908790859081106200220e576200220e620040a5565b6020026020010151600001516040518363ffffffff1660e01b81526004016200224a9291909182526001600160a01b0316602082015260400190565b602060405180830381865afa15801562002268573d6000803e3d6000fd5b505050506040513d601f19601f820116820180604052508101906200228e91906200430f565b620022c55760405162461bcd60e51b8152600401620005259060208082526004908201526310a0aa3960e11b604082015260600190565b80620022d181620040d1565b915050620021d4565b5060005b8251811015620023e15760475460495484516001600160a01b039092169163f40998119190869085908110620023185762002318620040a5565b6020026020010151600001516040518363ffffffff1660e01b8152600401620023549291909182526001600160a01b0316602082015260400190565b602060405180830381865afa15801562002372573d6000803e3d6000fd5b505050506040513d601f19601f820116820180604052508101906200239891906200430f565b620023cc5760405162461bcd60e51b815260206004820152600360248201526221414160e81b604482015260640162000525565b80620023d881620040d1565b915050620022de565b5060005b825181101562002466576200241a838281518110620024085762002408620040a5565b60200260200101516060015162002f05565b620024515760405162461bcd60e51b815260040162000525906020808252600490820152632141546b60e01b604082015260600190565b806200245d81620040d1565b915050620023e5565b50604254604051632e84a91960e01b81526101009091046001600160a01b031690632e84a919906200249f90869086906004016200492c565b6020604051808303816000875af1158015620024bf573d6000803e3d6000fd5b505050506040513d601f19601f82011682018060405250810190620024e591906200435d565b9392505050565b60425460405163e92a0fcf60e01b81526004810187905260009161010090046001600160a01b03169063e92a0fcf90602401600060405180830381865afa1580156200253c573d6000803e3d6000fd5b505050506040513d6000823e601f3d908101601f19168201604052620025669190810190620049d6565b905062002577818686868662003084565b6000805b82518110156200276a5760008382815181106200259c576200259c620040a5565b602002602001015190506000888884818110620025bd57620025bd620040a5565b905060200201359050604a73__$d84a6fe642bab30af710ab25b73b82ca77$__6302d32526909184846040518463ffffffff1660e01b8152600401620026069392919062004a0e565b60006040518083038186803b1580156200261f57600080fd5b505af415801562002634573d6000803e3d6000fd5b5050604254604051632ed1e7c160e01b815273__$73ba9acb7a266bb144fecabb2d69a75f38$__9350632ed1e7c19250620026869186916101009091046001600160a01b0316908690600401620043b4565b602060405180830381865af4158015620026a4573d6000803e3d6000fd5b505050506040513d601f19601f82011682018060405250810190620026ca91906200435d565b5060405163ae5c7d2760e01b815273__$73ba9acb7a266bb144fecabb2d69a75f38$__9063ae5c7d27906200270490859060040162004a32565b602060405180830381865af415801562002722573d6000803e3d6000fd5b505050506040513d601f19601f820116820180604052508101906200274891906200430f565b1562002752578093505b505080806200276190620040d1565b9150506200257b565b50604254604051634bb951cd60e11b81526101009091046001600160a01b031690639772a39a908390620027a7908b908b908b9060040162004a48565b6000604051808303818588803b158015620027c157600080fd5b505af1158015620027d6573d6000803e3d6000fd5b505050505050505050505050565b604080516001808252818301909252600091816020015b60408051606080820183526000808352602083015291810191909152815260200190600190039081620027fb579050509050620028388762004a8a565b816000815181106200284e576200284e620040a5565b6020908102919091010152604080516001808252818301909252600091816020015b620028a5604051806080016040528060006001600160a01b031681526020016060815260200160608152602001606081525090565b81526020019060019003908162002870579050509050620028c68762004a98565b81600081518110620028dc57620028dc620040a5565b60200260200101819052506000620028f58383620021d0565b9050620029068188888888620024ec565b60425460405160016201cfad60e21b03198152600481018390526101009091046001600160a01b03169063fff8c14c90602401600060405180830381600087803b1580156200295457600080fd5b505af115801562002969573d6000803e3d6000fd5b5050604254604051630d13ff1160e11b8152600481018590526101009091046001600160a01b03169250631a27fe229150602401600060405180830381600087803b158015620029b857600080fd5b505af1158015620029cd573d6000803e3d6000fd5b50505050620029db62002dac565b505050505050505050565b60425460405163e92a0fcf60e01b81526004810184905260009161010090046001600160a01b03169063e92a0fcf90602401600060405180830381865afa15801562002a36573d6000803e3d6000fd5b505050506040513d6000823e601f3d908101601f1916820160405262002a609190810190620049d6565b604254604051638238425560e01b815291925061010090046001600160a01b03169063823842559062002a9a908690869060040162004aa6565b600060405180830381600087803b15801562002ab557600080fd5b505af115801562002aca573d6000803e3d6000fd5b5050505060005b815181101562002b9b57604a73__$d84a6fe642bab30af710ab25b73b82ca77$__637bdd0ab0909184848151811062002b0e5762002b0e620040a5565b602002602001015186858151811062002b2b5762002b2b620040a5565b60200260200101516040518463ffffffff1660e01b815260040162002b539392919062004a0e565b60006040518083038186803b15801562002b6c57600080fd5b505af415801562002b81573d6000803e3d6000fd5b50505050808062002b9290620040d1565b91505062002ad1565b50505050565b600054610100900460ff1662002bcb5760405162461bcd60e51b8152600401620005259062004ac1565b62002bd56200330b565b565b604c805460ff1916600117905562002bee62002dac565b60425460405162d1742360e51b815260009161010090046001600160a01b031690631a2e84609062002c25908490600401620037ce565b6000604051808303816000875af115801562002c45573d6000803e3d6000fd5b505050506040513d6000823e601f3d908101601f1916820160405262002c6f919081019062004b0c565b60425460405162d1742360e51b81529192506000916101009091046001600160a01b031690631a2e84609062002cab90600190600401620037ce565b6000604051808303816000875af115801562002ccb573d6000803e3d6000fd5b505050506040513d6000823e601f3d908101601f1916820160405262002cf5919081019062004b0c565b905060005b825181101562002d405762002d2b83828151811062002d1d5762002d1d620040a5565b6020026020010151620020ba565b8062002d3781620040d1565b91505062002cfa565b5060005b815181101562002d7c5762002d6782828151811062002d1d5762002d1d620040a5565b8062002d7381620040d1565b91505062002d44565b5060405130907f13607bf9d2dd20e1f3a7daf47ab12856f8aad65e6ae7e2c75ace3d0c424a40e890600090a25050565b600080604260019054906101000a90046001600160a01b03166001600160a01b031663a24b25f06040518163ffffffff1660e01b81526004016000604051808303816000875af115801562002e05573d6000803e3d6000fd5b505050506040513d6000823e601f3d908101601f1916820160405262002e2f91908101906200403b565b9150915060005b825181101562002f0057604a73__$d84a6fe642bab30af710ab25b73b82ca77$__637bdd0ab0909185848151811062002e735762002e73620040a5565b602002602001015185858151811062002e905762002e90620040a5565b60200260200101516040518463ffffffff1660e01b815260040162002eb89392919062004a0e565b60006040518083038186803b15801562002ed157600080fd5b505af415801562002ee6573d6000803e3d6000fd5b50505050808062002ef790620040d1565b91505062002e36565b505050565b60425460009060ff161562002f1c57506001919050565b60005b82518110156200307b576047546040805180820182526006815265746f6b656e7360d01b602082015290516353c5df7360e11b81526001600160a01b039092169163f409981191839163a78bbee69162002f7f913091906004016200432f565b602060405180830381865afa15801562002f9d573d6000803e3d6000fd5b505050506040513d601f19601f8201168201806040525081019062002fc391906200435d565b85848151811062002fd85762002fd8620040a5565b6020026020010151602001516040518363ffffffff1660e01b8152600401620030149291909182526001600160a01b0316602082015260400190565b602060405180830381865afa15801562003032573d6000803e3d6000fd5b505050506040513d601f19601f820116820180604052508101906200305891906200430f565b620030665750600092915050565b806200307281620040d1565b91505062002f1f565b50506001919050565b60005b85518110156200330357858181518110620030a657620030a6620040a5565b602002602001015173__$73ba9acb7a266bb144fecabb2d69a75f38$__63e1afb77190916040518263ffffffff1660e01b8152600401620030e8919062004a32565b602060405180830381865af415801562003106573d6000803e3d6000fd5b505050506040513d601f19601f820116820180604052508101906200312c91906200430f565b80620031ce5750858181518110620031485762003148620040a5565b602002602001015173__$73ba9acb7a266bb144fecabb2d69a75f38$__63ae5c7d2790916040518263ffffffff1660e01b81526004016200318a919062004a32565b602060405180830381865af4158015620031a8573d6000803e3d6000fd5b505050506040513d601f19601f82011682018060405250810190620031ce91906200430f565b15620032ee5760455461271090868684818110620031f057620031f0620040a5565b9050602002013562003203919062004ba5565b6200320f919062004bbf565b838383818110620032245762003224620040a5565b9050602002013510156200323757600080fd5b8581815181106200324c576200324c620040a5565b602090810291909101015160435473__$73ba9acb7a266bb144fecabb2d69a75f38$__9163d90d23e8916001600160a01b0316868686818110620032945762003294620040a5565b905060200201356040518463ffffffff1660e01b8152600401620032bb93929190620043b4565b60006040518083038186803b158015620032d457600080fd5b505af4158015620032e9573d6000803e3d6000fd5b505050505b80620032fa81620040d1565b91505062003087565b505050505050565b600054610100900460ff1662001f645760405162461bcd60e51b8152600401620005259062004ac1565b6108e68062004be383390190565b6001600160a01b03811681146200335957600080fd5b50565b8035620033698162003343565b919050565b6000806000806000608086880312156200338757600080fd5b8535620033948162003343565b94506020860135620033a68162003343565b93506040860135925060608601356001600160401b0380821115620033ca57600080fd5b818801915088601f830112620033df57600080fd5b813581811115620033ef57600080fd5b8960208285010111156200340257600080fd5b9699959850939650602001949392505050565b6000602082840312156200342857600080fd5b5035919050565b60008083601f8401126200344257600080fd5b5081356001600160401b038111156200345a57600080fd5b6020830191508360208260051b85010111156200347657600080fd5b9250929050565b600080600080604085870312156200349457600080fd5b84356001600160401b0380821115620034ac57600080fd5b620034ba888389016200342f565b90965094506020870135915080821115620034d457600080fd5b50620034e3878288016200342f565b95989497509550505050565b634e487b7160e01b600052602160045260246000fd5b60038110620033595762003359620034ef565b8051620035258162003505565b82526020818101516001600160a01b031690830152604090810151910152565b600081518084526020808501945080840160005b8381101562003583576200356f87835162003518565b606096909601959082019060010162003559565b509495945050505050565b600081518084526020808501945080840160005b838110156200358357815187529582019590820190600101620035a2565b604081526000620035d5604083018562003545565b8281036020840152620035e981856200358e565b95945050505050565b6000806000806000606086880312156200360b57600080fd5b8535945060208601356001600160401b03808211156200362a57600080fd5b6200363889838a016200342f565b909650945060408801359150808211156200365257600080fd5b5062003661888289016200342f565b969995985093965092949392505050565b602081526000620024e5602083018462003545565b6000608082840312156200369a57600080fd5b50919050565b60008060008060008060808789031215620036ba57600080fd5b86356001600160401b0380821115620036d257600080fd5b908801906060828b031215620036e757600080fd5b90965060208801359080821115620036fe57600080fd5b6200370c8a838b0162003687565b965060408901359150808211156200372357600080fd5b620037318a838b016200342f565b909650945060608901359150808211156200374b57600080fd5b506200375a89828a016200342f565b979a9699509497509295939492505050565b6000806000604084860312156200378257600080fd5b8335925060208401356001600160401b03811115620037a057600080fd5b620037ae868287016200342f565b9497909650939450505050565b60048110620033595762003359620034ef565b60208101620037dd83620037bb565b91905290565b60008060208385031215620037f757600080fd5b82356001600160401b038111156200380e57600080fd5b6200381c858286016200342f565b90969095509350505050565b60006101c082019050865182526020870151602083015260408701516040830152606087015160608301526080870151608083015260a087015160a083015260c08701516200387b60c084018262003518565b5060e08701511515610120830152856101408301528461016083015283610180830152620038b56101a08301846001600160a01b03169052565b9695505050505050565b634e487b7160e01b600052604160045260246000fd5b604051606081016001600160401b0381118282101715620038fa57620038fa620038bf565b60405290565b60405161010081016001600160401b0381118282101715620038fa57620038fa620038bf565b604051608081016001600160401b0381118282101715620038fa57620038fa620038bf565b60405160a081016001600160401b0381118282101715620038fa57620038fa620038bf565b604051601f8201601f191681016001600160401b03811182821017156200399b576200399b620038bf565b604052919050565b600381106200335957600080fd5b600060608284031215620039c457600080fd5b620039ce620038d5565b90508135620039dd81620039a3565b81526020820135620039ef8162003343565b806020830152506040820135604082015292915050565b6000806080838503121562003a1a57600080fd5b62003a268484620039b1565b946060939093013593505050565b80151581146200335957600080fd5b8035620033698162003a34565b6000806000806000806000806000808a8c036102a081121562003a7257600080fd5b8b3562003a7f8162003343565b9a50610140601f19820181131562003a9657600080fd5b62003aa062003900565b915060208d0135825260408d0135602083015260608d0135604083015260808d0135606083015260a08d0135608083015260c08d013560a083015262003aea8e60e08f01620039b1565b60c083015262003afc818e0162003a43565b60e083015250985062003b148c6101608d0162003687565b975062003b256101e08c016200335c565b96506102008b013595506102208b0135945062003b466102408c016200335c565b93506102608b01356001600160401b0381111562003b6357600080fd5b62003b718d828e016200342f565b909450925062003b8790506102808c016200335c565b90509295989b9194979a5092959850565b602080825260029082015261575360f01b604082015260600190565b6020808252601f908201527f5265656e7472616e637947756172643a207265656e7472616e742063616c6c00604082015260600190565b60006001600160401b0382111562003c075762003c07620038bf565b5060051b60200190565b60006001600160401b0382111562003c2d5762003c2d620038bf565b50601f01601f191660200190565b600082601f83011262003c4d57600080fd5b813562003c6462003c5e8262003c11565b62003970565b81815284602083860101111562003c7a57600080fd5b816020850160208301376000918101602001919091529392505050565b60006060828403121562003caa57600080fd5b62003cb4620038d5565b9050813562003cc38162003343565b8152602082013562003cd581620039a3565b602082015260408201356001600160401b0381111562003cf457600080fd5b62003d028482850162003c3b565b60408301525092915050565b600062003d1f62003c5e8462003beb565b80848252602080830192508560051b85013681111562003d3e57600080fd5b855b8181101562003d7e5780356001600160401b0381111562003d615760008081fd5b62003d6f36828a0162003c97565b86525093820193820162003d40565b50919695505050505050565b600082601f83011262003d9c57600080fd5b8135602062003daf62003c5e8362003beb565b8281526060928302850182019282820191908785111562003dcf57600080fd5b8387015b8581101562003df65762003de88982620039b1565b845292840192810162003dd3565b5090979650505050505050565b60006080828403121562003e1657600080fd5b62003e2062003926565b9050813562003e2f8162003343565b815260208201356001600160401b038082111562003e4c57600080fd5b62003e5a8583860162003c3b565b6020840152604084013591508082111562003e7457600080fd5b62003e828583860162003d8a565b6040840152606084013591508082111562003e9c57600080fd5b5062003eab8482850162003d8a565b60608301525092915050565b600062003ec862003c5e8462003beb565b80848252602080830192508560051b85013681111562003ee757600080fd5b855b8181101562003d7e5780356001600160401b0381111562003f0a5760008081fd5b62003f1836828a0162003e03565b86525093820193820162003ee9565b600082601f83011262003f3957600080fd5b8151602062003f4c62003c5e8362003beb565b8281526060928302850182019282820191908785111562003f6c57600080fd5b8387015b8581101562003df65781818a03121562003f8a5760008081fd5b62003f94620038d5565b815162003fa181620039a3565b81528186015162003fb28162003343565b8187015260408281015190820152845292840192810162003f70565b600082601f83011262003fe057600080fd5b8151602062003ff362003c5e8362003beb565b82815260059290921b840181019181810190868411156200401357600080fd5b8286015b8481101562004030578051835291830191830162004017565b509695505050505050565b600080604083850312156200404f57600080fd5b82516001600160401b03808211156200406757600080fd5b620040758683870162003f27565b935060208501519150808211156200408c57600080fd5b506200409b8582860162003fce565b9150509250929050565b634e487b7160e01b600052603260045260246000fd5b634e487b7160e01b600052601160045260246000fd5b600060018201620040e657620040e6620040bb565b5060010190565b60005b838110156200410a578181015183820152602001620040f0565b50506000910152565b600081518084526200412d816020860160208601620040ed565b601f01601f19169290920160200192915050565b602081526000620024e5602083018462004113565b81835281816020850137506000828201602090810191909152601f909101601f19169091010190565b6000808335601e198436030181126200419757600080fd5b83016020810192503590506001600160401b03811115620041b757600080fd5b6060810236038213156200347657600080fd5b8183526000602080850194508260005b8581101562003583578135620041f081620039a3565b620041fb8162003505565b8752818301356200420c8162003343565b6001600160a01b0316878401526040828101359088015260609687019690910190600101620041da565b6020815260008235620042498162003343565b6001600160a01b031660208381019190915283013536849003601e190181126200427257600080fd5b83016020810190356001600160401b038111156200428f57600080fd5b8036038213156200429f57600080fd5b60806040850152620042b660a08501828462004156565b915050620042c860408501856200417f565b601f1980868503016060870152620042e2848385620041ca565b9350620042f360608801886200417f565b935091508086850301608087015250620038b5838383620041ca565b6000602082840312156200432257600080fd5b8151620024e58162003a34565b6001600160a01b0383168152604060208201819052600090620043559083018462004113565b949350505050565b6000602082840312156200437057600080fd5b5051919050565b6000602082840312156200438a57600080fd5b8135620024e58162003343565b8381526020810183905260a0810162004355604083018462003518565b60a08101620043c4828662003518565b6001600160a01b0393909316606082015260800152919050565b8481526020810184905260c08101620043fb604083018562003518565b8260a083015295945050505050565b60006101608201905083825282516020830152602083015160408301526040830151606083015260608301516080830152608083015160a083015260a083015160c083015260c08301516200446360e084018262003518565b5060e083015115156101408301529392505050565b8135620044858162003343565b81546001600160a01b0319166001600160a01b03919091161781556020820135600182015560408201356002820155606090910135600390910155565b600082601f830112620044d457600080fd5b8151620044e562003c5e8262003c11565b818152846020838601011115620044fb57600080fd5b62004355826020830160208701620040ed565b600082601f8301126200452057600080fd5b815160206200453362003c5e8362003beb565b82815260059290921b840181019181810190868411156200455357600080fd5b8286015b84811015620040305780516001600160401b0380821115620045795760008081fd5b908801906060828b03601f1901811315620045945760008081fd5b6200459e620038d5565b87840151620045ad8162003343565b8152604084810151620045c081620039a3565b828a0152918401519183831115620045d85760008081fd5b620045e88d8a85880101620044c2565b90820152865250505091830191830162004557565b600082601f8301126200460f57600080fd5b815160206200462262003c5e8362003beb565b82815260059290921b840181019181810190868411156200464257600080fd5b8286015b84811015620040305780516001600160401b0380821115620046685760008081fd5b908801906080828b03601f1901811315620046835760008081fd5b6200468d62003926565b878401516200469c8162003343565b815260408481015184811115620046b35760008081fd5b620046c38e8b83890101620044c2565b8a8401525060608086015185811115620046dd5760008081fd5b620046ed8f8c838a010162003f27565b84840152509285015192848411156200470857600091508182fd5b620047188e8b8689010162003f27565b9083015250865250505091830191830162004646565b8051600481106200336957600080fd5b6000602082840312156200475157600080fd5b81516001600160401b03808211156200476957600080fd5b9083019060a082860312156200477e57600080fd5b620047886200394b565b8251828111156200479857600080fd5b620047a6878286016200450e565b825250602083015182811115620047bc57600080fd5b620047ca87828601620045fd565b602083015250604083015182811115620047e357600080fd5b620047f18782860162003fce565b60408301525062004805606084016200472e565b60608201526080830151828111156200481d57600080fd5b6200482b8782860162003fce565b60808301525095945050505050565b600081518084526020808501945080840160005b8381101562003583576200486487835162003518565b60609690960195908201906001016200484e565b600081518084526020808501808196508360051b8101915082860160005b858110156200491f578284038952815180516001600160a01b0316855285810151608087870181905290620048ce8288018262004113565b91505060408083015187830382890152620048ea83826200483a565b92505050606080830151925086820381880152506200490a81836200483a565b9a87019a955050509084019060010162004896565b5091979650505050505050565b60006040808301818452808651808352606092508286019150828160051b8701016020808a0160005b84811015620049b457898403605f19018652815180516001600160a01b0316855283810151620049858162003505565b85850152880151888501889052620049a08886018262004113565b968401969450509082019060010162004955565b505087820390880152620049c9818962004878565b9998505050505050505050565b600060208284031215620049e957600080fd5b81516001600160401b0381111562004a0057600080fd5b620043558482850162003f27565b83815260a0810162004a24602083018562003518565b826080830152949350505050565b6060810162004a42828462003518565b92915050565b838152604060208201819052810182905260006001600160fb1b0383111562004a7057600080fd5b8260051b8085606085013791909101606001949350505050565b600062004a42368362003c97565b600062004a42368362003e03565b8281526040602082015260006200435560408301846200358e565b6020808252602b908201527f496e697469616c697a61626c653a20636f6e7472616374206973206e6f74206960408201526a6e697469616c697a696e6760a81b606082015260800190565b6000602080838503121562004b2057600080fd5b82516001600160401b0381111562004b3757600080fd5b8301601f8101851362004b4957600080fd5b805162004b5a62003c5e8262003beb565b81815260059190911b8201830190838101908783111562004b7a57600080fd5b928401925b8284101562004b9a5783518252928401929084019062004b7f565b979650505050505050565b808202811582820484141762004a425762004a42620040bb565b60008262004bdd57634e487b7160e01b600052601260045260246000fd5b50049056fe60806040526040516108e63803806108e68339810160408190526100229161044e565b61002e82826000610035565b5050610578565b61003e83610100565b6040516001600160a01b038416907f1cf3b03a6cf19fa2baba4df148e9dcabedea7f8a5c07840e207e5c089be95d3e90600090a260008251118061007f5750805b156100fb576100f9836001600160a01b0316635c60da1b6040518163ffffffff1660e01b8152600401602060405180830381865afa1580156100c5573d6000803e3d6000fd5b505050506040513d601f19601f820116820180604052508101906100e9919061050e565b836102a360201b6100291760201c565b505b505050565b610113816102cf60201b6100551760201c565b6101725760405162461bcd60e51b815260206004820152602560248201527f455243313936373a206e657720626561636f6e206973206e6f74206120636f6e6044820152641d1c9858dd60da1b60648201526084015b60405180910390fd5b6101e6816001600160a01b0316635c60da1b6040518163ffffffff1660e01b8152600401602060405180830381865afa1580156101b3573d6000803e3d6000fd5b505050506040513d601f19601f820116820180604052508101906101d7919061050e565b6102cf60201b6100551760201c565b61024b5760405162461bcd60e51b815260206004820152603060248201527f455243313936373a20626561636f6e20696d706c656d656e746174696f6e206960448201526f1cc81b9bdd08184818dbdb9d1c9858dd60821b6064820152608401610169565b806102827fa3f0ad74e5423aebfd80d3ef4346578335a9a72aeaee59ff6cb3582b35133d5060001b6102de60201b6100641760201c565b80546001600160a01b0319166001600160a01b039290921691909117905550565b60606102c883836040518060600160405280602781526020016108bf602791396102e1565b9392505050565b6001600160a01b03163b151590565b90565b60606001600160a01b0384163b6103495760405162461bcd60e51b815260206004820152602660248201527f416464726573733a2064656c65676174652063616c6c20746f206e6f6e2d636f6044820152651b9d1c9858dd60d21b6064820152608401610169565b600080856001600160a01b0316856040516103649190610529565b600060405180830381855af49150503d806000811461039f576040519150601f19603f3d011682016040523d82523d6000602084013e6103a4565b606091505b5090925090506103b58282866103bf565b9695505050505050565b606083156103ce5750816102c8565b8251156103de5782518084602001fd5b8160405162461bcd60e51b81526004016101699190610545565b80516001600160a01b038116811461040f57600080fd5b919050565b634e487b7160e01b600052604160045260246000fd5b60005b8381101561044557818101518382015260200161042d565b50506000910152565b6000806040838503121561046157600080fd5b61046a836103f8565b60208401519092506001600160401b038082111561048757600080fd5b818501915085601f83011261049b57600080fd5b8151818111156104ad576104ad610414565b604051601f8201601f19908116603f011681019083821181831017156104d5576104d5610414565b816040528281528860208487010111156104ee57600080fd5b6104ff83602083016020880161042a565b80955050505050509250929050565b60006020828403121561052057600080fd5b6102c8826103f8565b6000825161053b81846020870161042a565b9190910192915050565b602081526000825180602084015261056481604085016020870161042a565b601f01601f19169190910160400192915050565b610338806105876000396000f3fe60806040523661001357610011610017565b005b6100115b610027610022610067565b610100565b565b606061004e83836040518060600160405280602781526020016102dc60279139610124565b9392505050565b6001600160a01b03163b151590565b90565b600061009a7fa3f0ad74e5423aebfd80d3ef4346578335a9a72aeaee59ff6cb3582b35133d50546001600160a01b031690565b6001600160a01b0316635c60da1b6040518163ffffffff1660e01b8152600401602060405180830381865afa1580156100d7573d6000803e3d6000fd5b505050506040513d601f19601f820116820180604052508101906100fb919061023f565b905090565b3660008037600080366000845af43d6000803e80801561011f573d6000f35b3d6000fd5b60606001600160a01b0384163b6101915760405162461bcd60e51b815260206004820152602660248201527f416464726573733a2064656c65676174652063616c6c20746f206e6f6e2d636f6044820152651b9d1c9858dd60d21b60648201526084015b60405180910390fd5b600080856001600160a01b0316856040516101ac919061028c565b600060405180830381855af49150503d80600081146101e7576040519150601f19603f3d011682016040523d82523d6000602084013e6101ec565b606091505b50915091506101fc828286610206565b9695505050505050565b6060831561021557508161004e565b8251156102255782518084602001fd5b8160405162461bcd60e51b815260040161018891906102a8565b60006020828403121561025157600080fd5b81516001600160a01b038116811461004e57600080fd5b60005b8381101561028357818101518382015260200161026b565b50506000910152565b6000825161029e818460208701610268565b9190910192915050565b60208152600082518060208401526102c7816040850160208701610268565b601f01601f1916919091016040019291505056fe416464726573733a206c6f772d6c6576656c2064656c65676174652063616c6c206661696c6564a2646970667358221220850125bf8801321827148766e6775badc079cac2454869093b033a756d8d742564736f6c63430008110033416464726573733a206c6f772d6c6576656c2064656c65676174652063616c6c206661696c6564546869732073746174652073686f756c64206e657665722062652072656163686564a2646970667358221220ccb98f241d6b028fbb884a21dba3fc2238183396c374541cd15d3264e248325364736f6c63430008110033",
  "linkReferences": {
    "contracts/utils/assets/AssetTracker.sol": {
      "AssetTracker": [
        {
          "length": 20,
          "start": 9918
        },
        {
          "length": 20,
          "start": 11219
        },
        {
          "length": 20,
          "start": 12088
        }
      ]
    },
    "contracts/utils/assets/TokenLib.sol": {
      "TokenLib": [
        {
          "length": 20,
          "start": 5000
        },
        {
          "length": 20,
          "start": 10044
        },
        {
          "length": 20,
          "start": 10190
        },
        {
          "length": 20,
          "start": 12708
        },
        {
          "length": 20,
          "start": 12870
        },
        {
          "length": 20,
          "start": 13136
        }
      ]
    },
    "contracts/utils/subscriptions/Subscriptions.sol": {
      "Subscriptions": [
        {
          "length": 20,
          "start": 2251
        },
        {
          "length": 20,
          "start": 2421
        },
        {
          "length": 20,
          "start": 4779
        },
        {
          "length": 20,
          "start": 6143
        },
        {
          "length": 20,
          "start": 6622
        },
        {
          "length": 20,
          "start": 6716
        }
      ]
    }
  },
  "deployedLinkReferences": {
    "contracts/utils/assets/AssetTracker.sol": {
      "AssetTracker": [
        {
          "length": 20,
          "start": 9674
        },
        {
          "length": 20,
          "start": 10975
        },
        {
          "length": 20,
          "start": 11844
        }
      ]
    },
    "contracts/utils/assets/TokenLib.sol": {
      "TokenLib": [
        {
          "length": 20,
          "start": 4756
        },
        {
          "length": 20,
          "start": 9800
        },
        {
          "length": 20,
          "start": 9946
        },
        {
          "length": 20,
          "start": 12464
        },
        {
          "length": 20,
          "start": 12626
        },
        {
          "length": 20,
          "start": 12892
        }
      ]
    },
    "contracts/utils/subscriptions/Subscriptions.sol": {
      "Subscriptions": [
        {
          "length": 20,
          "start": 2007
        },
        {
          "length": 20,
          "start": 2177
        },
        {
          "length": 20,
          "start": 4535
        },
        {
          "length": 20,
          "start": 5899
        },
        {
          "length": 20,
          "start": 6378
        },
        {
          "length": 20,
          "start": 6472
        }
      ]
    }
  }
}